{
  "contractName": "Ballot",
  "abi": [
    {
      "constant": true,
      "inputs": [
        {
          "name": "",
          "type": "uint256"
        }
      ],
      "name": "proposals",
      "outputs": [
        {
          "name": "name",
          "type": "bytes32"
        },
        {
          "name": "voteCount",
          "type": "uint256"
        }
      ],
      "payable": false,
      "stateMutability": "view",
      "type": "function"
    },
    {
      "constant": true,
      "inputs": [
        {
          "name": "",
          "type": "address"
        }
      ],
      "name": "voters",
      "outputs": [
        {
          "name": "weight",
          "type": "uint256"
        },
        {
          "name": "voted",
          "type": "bool"
        },
        {
          "name": "delegate",
          "type": "address"
        },
        {
          "name": "vote",
          "type": "uint256"
        }
      ],
      "payable": false,
      "stateMutability": "view",
      "type": "function"
    },
    {
      "constant": true,
      "inputs": [],
      "name": "chairPerson",
      "outputs": [
        {
          "name": "",
          "type": "address"
        }
      ],
      "payable": false,
      "stateMutability": "view",
      "type": "function"
    },
    {
      "inputs": [
        {
          "name": "proposalNames",
          "type": "bytes32[]"
        }
      ],
      "payable": false,
      "stateMutability": "nonpayable",
      "type": "constructor"
    },
    {
      "constant": false,
      "inputs": [
        {
          "name": "voter",
          "type": "address"
        }
      ],
      "name": "giveRightToVote",
      "outputs": [],
      "payable": false,
      "stateMutability": "nonpayable",
      "type": "function"
    },
    {
      "constant": false,
      "inputs": [
        {
          "name": "to",
          "type": "address"
        }
      ],
      "name": "delegate",
      "outputs": [],
      "payable": false,
      "stateMutability": "nonpayable",
      "type": "function"
    },
    {
      "constant": false,
      "inputs": [
        {
          "name": "proposal",
          "type": "uint256"
        }
      ],
      "name": "vote",
      "outputs": [],
      "payable": false,
      "stateMutability": "nonpayable",
      "type": "function"
    },
    {
      "constant": true,
      "inputs": [],
      "name": "winningProposal",
      "outputs": [
        {
          "name": "winningProposal_",
          "type": "uint256"
        }
      ],
      "payable": false,
      "stateMutability": "view",
      "type": "function"
    },
    {
      "constant": true,
      "inputs": [],
      "name": "winnerName",
      "outputs": [
        {
          "name": "winnerName_",
          "type": "bytes32"
        }
      ],
      "payable": false,
      "stateMutability": "view",
      "type": "function"
    },
    {
      "constant": true,
      "inputs": [
        {
          "name": "voter",
          "type": "address"
        }
      ],
      "name": "getVoterDetails",
      "outputs": [
        {
          "name": "",
          "type": "uint256"
        },
        {
          "name": "",
          "type": "bool"
        },
        {
          "name": "",
          "type": "address"
        },
        {
          "name": "",
          "type": "uint256"
        }
      ],
      "payable": false,
      "stateMutability": "view",
      "type": "function"
    }
  ],
  "bytecode": "0x608060405234801561001057600080fd5b506040516111053803806111058339810180604052602081101561003357600080fd5b81019080805164010000000081111561004b57600080fd5b8281019050602081018481111561006157600080fd5b815185602082028301116401000000008211171561007e57600080fd5b5050929190505050336000806101000a81548173ffffffffffffffffffffffffffffffffffffffff021916908373ffffffffffffffffffffffffffffffffffffffff16021790555060018060008060009054906101000a900473ffffffffffffffffffffffffffffffffffffffff1673ffffffffffffffffffffffffffffffffffffffff1673ffffffffffffffffffffffffffffffffffffffff1681526020019081526020016000206000018190555060008090505b81518110156101bb5760026040805190810160405280848481518110151561015857fe5b90602001906020020151815260200160008152509080600181540180825580915050906001820390600052602060002090600202016000909192909190915060008201518160000155602082015181600101555050508080600101915050610134565b5050610f39806101cc6000396000f3fe608060405234801561001057600080fd5b50600436106100b0576000357c0100000000000000000000000000000000000000000000000000000000900480639e7b8d61116100835780639e7b8d611461018e578063a3ec138d146101d2578063ba71bef01461026f578063d4d4b5ac1461030c578063e2ba53f014610356576100b0565b80630121b93f146100b5578063013cf08b146100e35780635c19a95c1461012c578063609ff1bd14610170575b600080fd5b6100e1600480360360208110156100cb57600080fd5b8101908080359060200190929190505050610374565b005b61010f600480360360208110156100f957600080fd5b81019080803590602001909291905050506104fa565b604051808381526020018281526020019250505060405180910390f35b61016e6004803603602081101561014257600080fd5b81019080803573ffffffffffffffffffffffffffffffffffffffff16906020019092919050505061052d565b005b6101786108fc565b6040518082815260200191505060405180910390f35b6101d0600480360360208110156101a457600080fd5b81019080803573ffffffffffffffffffffffffffffffffffffffff169060200190929190505050610977565b005b610214600480360360208110156101e857600080fd5b81019080803573ffffffffffffffffffffffffffffffffffffffff169060200190929190505050610bad565b60405180858152602001841515151581526020018373ffffffffffffffffffffffffffffffffffffffff1673ffffffffffffffffffffffffffffffffffffffff16815260200182815260200194505050505060405180910390f35b6102b16004803603602081101561028557600080fd5b81019080803573ffffffffffffffffffffffffffffffffffffffff169060200190929190505050610c0a565b60405180858152602001841515151581526020018373ffffffffffffffffffffffffffffffffffffffff1673ffffffffffffffffffffffffffffffffffffffff16815260200182815260200194505050505060405180910390f35b610314610d58565b604051808273ffffffffffffffffffffffffffffffffffffffff1673ffffffffffffffffffffffffffffffffffffffff16815260200191505060405180910390f35b61035e610d7d565b6040518082815260200191505060405180910390f35b6000600160003373ffffffffffffffffffffffffffffffffffffffff1673ffffffffffffffffffffffffffffffffffffffff16815260200190815260200160002090506000816000015414151515610417576040517f08c379a0000000000000000000000000000000000000000000000000000000008152600401808060200182810382526027815260200180610ee76027913960400191505060405180910390fd5b8060010160009054906101000a900460ff1615151561049e576040517f08c379a00000000000000000000000000000000000000000000000000000000081526004018080602001828103825260208152602001807f696e2042616c6c6f743a766f746528292e20416c726561647920766f7465642e81525060200191505060405180910390fd5b60018160010160006101000a81548160ff02191690831515021790555081816002018190555080600001546002838154811015156104d857fe5b9060005260206000209060020201600101600082825401925050819055505050565b60028181548110151561050957fe5b90600052602060002090600202016000915090508060000154908060010154905082565b6000600160003373ffffffffffffffffffffffffffffffffffffffff1673ffffffffffffffffffffffffffffffffffffffff16815260200190815260200160002090508060010160009054906101000a900460ff161515156105da576040517f08c379a000000000000000000000000000000000000000000000000000000000815260040180806020018281038252602f815260200180610dad602f913960400191505060405180910390fd5b3373ffffffffffffffffffffffffffffffffffffffff168273ffffffffffffffffffffffffffffffffffffffff1614151515610661576040517f08c379a0000000000000000000000000000000000000000000000000000000008152600401808060200182810382526034815260200180610ddc6034913960400191505060405180910390fd5b5b600073ffffffffffffffffffffffffffffffffffffffff16600160008473ffffffffffffffffffffffffffffffffffffffff1673ffffffffffffffffffffffffffffffffffffffff16815260200190815260200160002060010160019054906101000a900473ffffffffffffffffffffffffffffffffffffffff1673ffffffffffffffffffffffffffffffffffffffff161415156107eb57600160008373ffffffffffffffffffffffffffffffffffffffff1673ffffffffffffffffffffffffffffffffffffffff16815260200190815260200160002060010160019054906101000a900473ffffffffffffffffffffffffffffffffffffffff1691503373ffffffffffffffffffffffffffffffffffffffff168273ffffffffffffffffffffffffffffffffffffffff16141515156107e6576040517f08c379a0000000000000000000000000000000000000000000000000000000008152600401808060200182810382526031815260200180610e106031913960400191505060405180910390fd5b610662565b60018160010160006101000a81548160ff021916908315150217905550818160010160016101000a81548173ffffffffffffffffffffffffffffffffffffffff021916908373ffffffffffffffffffffffffffffffffffffffff1602179055506000600160008473ffffffffffffffffffffffffffffffffffffffff1673ffffffffffffffffffffffffffffffffffffffff16815260200190815260200160002090508060010160009054906101000a900460ff16156108e0578160000154600282600201548154811015156108bd57fe5b9060005260206000209060020201600101600082825401925050819055506108f7565b816000015481600001600082825401925050819055505b505050565b6000806000905060008090505b600280549050811015610972578160028281548110151561092657fe5b90600052602060002090600202016001015411156109655760028181548110151561094d57fe5b90600052602060002090600202016001015491508092505b8080600101915050610909565b505090565b6000809054906101000a900473ffffffffffffffffffffffffffffffffffffffff1673ffffffffffffffffffffffffffffffffffffffff163373ffffffffffffffffffffffffffffffffffffffff16141515610a1e576040517f08c379a0000000000000000000000000000000000000000000000000000000008152600401808060200182810382526036815260200180610e766036913960400191505060405180910390fd5b600160008273ffffffffffffffffffffffffffffffffffffffff1673ffffffffffffffffffffffffffffffffffffffff16815260200190815260200160002060010160009054906101000a900460ff16151515610ac6576040517f08c379a0000000000000000000000000000000000000000000000000000000008152600401808060200182810382526035815260200180610e416035913960400191505060405180910390fd5b6000600160008373ffffffffffffffffffffffffffffffffffffffff1673ffffffffffffffffffffffffffffffffffffffff16815260200190815260200160002060000154141515610b63576040517f08c379a000000000000000000000000000000000000000000000000000000000815260040180806020018281038252603b815260200180610eac603b913960400191505060405180910390fd5b60018060008373ffffffffffffffffffffffffffffffffffffffff1673ffffffffffffffffffffffffffffffffffffffff1681526020019081526020016000206000018190555050565b60016020528060005260406000206000915090508060000154908060010160009054906101000a900460ff16908060010160019054906101000a900473ffffffffffffffffffffffffffffffffffffffff16908060020154905084565b600080600080600160008673ffffffffffffffffffffffffffffffffffffffff1673ffffffffffffffffffffffffffffffffffffffff16815260200190815260200160002060000154600160008773ffffffffffffffffffffffffffffffffffffffff1673ffffffffffffffffffffffffffffffffffffffff16815260200190815260200160002060010160009054906101000a900460ff16600160008873ffffffffffffffffffffffffffffffffffffffff1673ffffffffffffffffffffffffffffffffffffffff16815260200190815260200160002060010160019054906101000a900473ffffffffffffffffffffffffffffffffffffffff16600160008973ffffffffffffffffffffffffffffffffffffffff1673ffffffffffffffffffffffffffffffffffffffff1681526020019081526020016000206002015493509350935093509193509193565b6000809054906101000a900473ffffffffffffffffffffffffffffffffffffffff1681565b60006002610d896108fc565b815481101515610d9557fe5b90600052602060002090600202016000015490509056fe696e2042616c6c6f743a64656c656761746528292e2043616c6c65722068617320616c726561647920766f7465642e696e2042616c6c6f743a64656c656761746528292e2053656c662d64656c65676174696f6e20697320646973616c6c6f7765642e696e2042616c6c6f743a64656c656761746528292e20466f756e642061206c6f6f7020696e2064656c65676174696f6e2e696e2042616c6c6f743a676976655269676874546f566f746528292e2054686520766f74657220616c726561647920766f7465642e696e2042616c6c6f743a6f6e6c794368616972506572736f6e28292e2043616c6c6572206973206e6f74206368616972706572736f6e696e2042616c6c6f743a676976655269676874546f566f746528292e20526967687420746f20766f746520616c7265616479206772616e7465642e696e2042616c6c6f743a766f746528292e20486173206e6f20726967687420746f20766f74652ea165627a7a7230582050989cd421623c8ddfbaf57cca0a88eb2e7a4ef2e523ca62bb714cedeab66d760029",
  "source": "pragma solidity >=0.4.22 <0.7.0;\n\n/// @title Voting with delegation.\n/// @author Balaji Shetty Pachai\n/// @notice This contract has been developed by referring the below link\n/// @dev Ballot contract for e-voting\n/// Reference: https://solidity.readthedocs.io/en/v0.5.11/solidity-by-example.html#voting\ncontract Ballot {\n    struct Voter {\n        uint256 weight;\n        bool voted;\n        address delegate;\n        uint256 vote;\n    }\n\n    struct Proposal {\n        bytes32 name;\n        uint256 voteCount;\n    }\n\n    address public chairPerson;\n\n    mapping(address => Voter) public voters;\n\n    // An array of Proposal Struct\n    Proposal[] public proposals;\n\n    modifier onlyChairPerson() {\n        require(msg.sender == chairPerson, \"in Ballot:onlyChairPerson(). Caller is not chairperson\");\n        _;\n    }\n\n    /// @notice constructor function\n    /// @param proposalNames Array containig all the proposal names \n    constructor (bytes32[] memory proposalNames) public {\n        chairPerson = msg.sender;\n        voters[chairPerson].weight = 1;\n        // Foe each of the provided proposal names create a new proposal object & add\n        // it at the end of the array\n        for (uint256 index = 0; index < proposalNames.length; index++) {\n            proposals.push(Proposal({name: proposalNames[index], voteCount: 0}));\n        }\n    }\n\n    /// @notice Give voter the right to vote\n    /// @param voter Address of the voter\n    function giveRightToVote(address voter) public onlyChairPerson {\n        require(!voters[voter].voted, \"in Ballot:giveRightToVote(). The voter already voted.\");\n        require(voters[voter].weight == 0, \"in Ballot:giveRightToVote(). Right to vote already granted.\");\n        voters[voter].weight = 1;\n    }\n\n    /// @notice Delegate your vote to the voter `to`\n    /// @param to Address to whom the vote will be delegated\n    function delegate(address to) public {\n        Voter storage sender = voters[msg.sender];\n        require(!sender.voted, \"in Ballot:delegate(). Caller has already voted.\");\n        require(to != msg.sender, \"in Ballot:delegate(). Self-delegation is disallowed.\");\n        while (voters[to].delegate != address(0)) {\n            to = voters[to].delegate;\n            require(to != msg.sender, \"in Ballot:delegate(). Found a loop in delegation.\");\n        }\n        sender.voted = true;\n        sender.delegate = to;\n        Voter storage delegate_ = voters[to];\n        if (delegate_.voted) {\n            proposals[delegate_.vote].voteCount += sender.weight;\n        } else {\n            delegate_.weight += sender.weight;\n        }\n    }\n\n    /// @notice Give your vote (including votes delegated to you)\n    /// @param proposal proposals[proposal].name\n    function vote(uint256 proposal) public {\n        Voter storage sender = voters[msg.sender];\n        require(sender.weight != 0, \"in Ballot:vote(). Has no right to vote.\");\n        require(!sender.voted, \"in Ballot:vote(). Already voted.\");\n        sender.voted = true;\n        sender.vote = proposal;\n\n        proposals[proposal].voteCount += sender.weight;\n    }\n\n    /// @notice Computes the winning proposal\n    function winningProposal() public view returns (uint256 winningProposal_) {\n        uint256 winningVoteCount = 0;\n        for (uint256 p = 0; p < proposals.length; p++) {\n            if (proposals[p].voteCount > winningVoteCount) {\n                winningVoteCount = proposals[p].voteCount;\n                winningProposal_ = p;\n            }\n        }\n    }\n\n    /// @notice Calls winningProposal() to get the index of winner contained\n    /// in the proposals array\n    function winnerName() public view returns (bytes32 winnerName_) {\n        winnerName_ = proposals[winningProposal()].name;\n    }\n\n    /// @notice Gets the vote weight\n    /// This is not recommended, but for the sake of learning\n    /// and understanding I have added this functionality\n    function getVoterDetails(address voter) public view returns (uint256, bool, address, uint256) {\n        return (voters[voter].weight, voters[voter].voted, voters[voter].delegate, voters[voter].vote);\n    }\n}",
  "sourcePath": "/home/balaji/Desktop/learning/smart-contract-for-fun/solidity-readthe-docs/contracts/Ballot.sol",
  "compiler": {
    "name": "solc",
    "version": "0.5.2+commit.1df8f40c.Emscripten.clang"
  },
  "schemaVersion": "3.0.16",
  "updatedAt": "2019-09-27T10:29:23.288Z",
  "devdoc": {
    "author": "Balaji Shetty Pachai",
    "details": "Ballot contract for e-voting Reference: https://solidity.readthedocs.io/en/v0.5.11/solidity-by-example.html#voting",
    "methods": {
      "constructor": {
        "params": {
          "proposalNames": "Array containig all the proposal names "
        }
      },
      "delegate(address)": {
        "params": {
          "to": "Address to whom the vote will be delegated"
        }
      },
      "giveRightToVote(address)": {
        "params": {
          "voter": "Address of the voter"
        }
      },
      "vote(uint256)": {
        "params": {
          "proposal": "proposals[proposal].name"
        }
      }
    },
    "title": "Voting with delegation."
  },
  "userdoc": {
    "methods": {
      "constructor": "constructor function",
      "delegate(address)": {
        "notice": "Delegate your vote to the voter `to`"
      },
      "getVoterDetails(address)": {
        "notice": "Gets the vote weight This is not recommended, but for the sake of learning and understanding I have added this functionality"
      },
      "giveRightToVote(address)": {
        "notice": "Give voter the right to vote"
      },
      "vote(uint256)": {
        "notice": "Give your vote (including votes delegated to you)"
      },
      "winnerName()": {
        "notice": "Calls winningProposal() to get the index of winner contained in the proposals array"
      },
      "winningProposal()": {
        "notice": "Computes the winning proposal"
      }
    },
    "notice": "This contract has been developed by referring the below link"
  }
}