{
  "contractName": "BlindAuction",
  "abi": [
    {
      "constant": true,
      "inputs": [
        {
          "name": "",
          "type": "address"
        },
        {
          "name": "",
          "type": "uint256"
        }
      ],
      "name": "bids",
      "outputs": [
        {
          "name": "blindedBid",
          "type": "bytes32"
        },
        {
          "name": "deposit",
          "type": "uint256"
        }
      ],
      "payable": false,
      "stateMutability": "view",
      "type": "function"
    },
    {
      "constant": true,
      "inputs": [],
      "name": "ended",
      "outputs": [
        {
          "name": "",
          "type": "bool"
        }
      ],
      "payable": false,
      "stateMutability": "view",
      "type": "function"
    },
    {
      "constant": true,
      "inputs": [
        {
          "name": "",
          "type": "address"
        }
      ],
      "name": "pendingReturns",
      "outputs": [
        {
          "name": "",
          "type": "uint256"
        }
      ],
      "payable": false,
      "stateMutability": "view",
      "type": "function"
    },
    {
      "constant": true,
      "inputs": [],
      "name": "beneficiary",
      "outputs": [
        {
          "name": "",
          "type": "address"
        }
      ],
      "payable": false,
      "stateMutability": "view",
      "type": "function"
    },
    {
      "constant": true,
      "inputs": [],
      "name": "biddingEnd",
      "outputs": [
        {
          "name": "",
          "type": "uint256"
        }
      ],
      "payable": false,
      "stateMutability": "view",
      "type": "function"
    },
    {
      "constant": true,
      "inputs": [],
      "name": "highestBidder",
      "outputs": [
        {
          "name": "",
          "type": "address"
        }
      ],
      "payable": false,
      "stateMutability": "view",
      "type": "function"
    },
    {
      "constant": true,
      "inputs": [],
      "name": "revealEnd",
      "outputs": [
        {
          "name": "",
          "type": "uint256"
        }
      ],
      "payable": false,
      "stateMutability": "view",
      "type": "function"
    },
    {
      "constant": true,
      "inputs": [],
      "name": "highestBid",
      "outputs": [
        {
          "name": "",
          "type": "uint256"
        }
      ],
      "payable": false,
      "stateMutability": "view",
      "type": "function"
    },
    {
      "inputs": [
        {
          "name": "_biddingTime",
          "type": "uint256"
        },
        {
          "name": "_revealTime",
          "type": "uint256"
        },
        {
          "name": "_beneficiary",
          "type": "address"
        }
      ],
      "payable": false,
      "stateMutability": "nonpayable",
      "type": "constructor"
    },
    {
      "anonymous": false,
      "inputs": [
        {
          "indexed": false,
          "name": "winner",
          "type": "address"
        },
        {
          "indexed": false,
          "name": "highestBid",
          "type": "uint256"
        }
      ],
      "name": "AuctionEnded",
      "type": "event"
    },
    {
      "constant": false,
      "inputs": [
        {
          "name": "_blindedBid",
          "type": "bytes32"
        }
      ],
      "name": "bid",
      "outputs": [],
      "payable": true,
      "stateMutability": "payable",
      "type": "function"
    },
    {
      "constant": false,
      "inputs": [
        {
          "name": "_values",
          "type": "uint256[]"
        },
        {
          "name": "_fake",
          "type": "bool[]"
        },
        {
          "name": "_secret",
          "type": "bytes32[]"
        }
      ],
      "name": "reveal",
      "outputs": [],
      "payable": false,
      "stateMutability": "nonpayable",
      "type": "function"
    },
    {
      "constant": false,
      "inputs": [],
      "name": "withdraw",
      "outputs": [],
      "payable": false,
      "stateMutability": "nonpayable",
      "type": "function"
    },
    {
      "constant": false,
      "inputs": [],
      "name": "auctionEnd",
      "outputs": [],
      "payable": false,
      "stateMutability": "nonpayable",
      "type": "function"
    }
  ],
  "bytecode": "0x608060405234801561001057600080fd5b5060405160608061120e8339810180604052606081101561003057600080fd5b81019080805190602001909291908051906020019092919080519060200190929190505050600073ffffffffffffffffffffffffffffffffffffffff168173ffffffffffffffffffffffffffffffffffffffff16141515156100dd576040517f08c379a00000000000000000000000000000000000000000000000000000000081526004018080602001828103825260398152602001806111a46039913960400191505060405180910390fd5b600083111515610138576040517f08c379a00000000000000000000000000000000000000000000000000000000081526004018080602001828103825260318152602001806111dd6031913960400191505060405180910390fd5b806000806101000a81548173ffffffffffffffffffffffffffffffffffffffff021916908373ffffffffffffffffffffffffffffffffffffffff16021790555082420160018190555081600154016002819055505050506110068061019e6000396000f3fe6080604052600436106100c4576000357c010000000000000000000000000000000000000000000000000000000090048063423b217f11610081578063423b217f14610258578063900f080a1461028357806391f9015714610470578063957bb1e0146104c7578063a6e66477146104f5578063d57bde7914610520576100c4565b806301495c1c146100c957806312fa6feb1461013f57806326b387bb1461016e5780632a24f46c146101d357806338af3eed146101ea5780633ccfd60b14610241575b600080fd5b3480156100d557600080fd5b50610122600480360360408110156100ec57600080fd5b81019080803573ffffffffffffffffffffffffffffffffffffffff1690602001909291908035906020019092919050505061054b565b604051808381526020018281526020019250505060405180910390f35b34801561014b57600080fd5b5061015461058b565b604051808215151515815260200191505060405180910390f35b34801561017a57600080fd5b506101bd6004803603602081101561019157600080fd5b81019080803573ffffffffffffffffffffffffffffffffffffffff16906020019092919050505061059e565b6040518082815260200191505060405180910390f35b3480156101df57600080fd5b506101e86105b6565b005b3480156101f657600080fd5b506101ff610792565b604051808273ffffffffffffffffffffffffffffffffffffffff1673ffffffffffffffffffffffffffffffffffffffff16815260200191505060405180910390f35b34801561024d57600080fd5b506102566107b7565b005b34801561026457600080fd5b5061026d610894565b6040518082815260200191505060405180910390f35b34801561028f57600080fd5b5061046e600480360360608110156102a657600080fd5b81019080803590602001906401000000008111156102c357600080fd5b8201836020820111156102d557600080fd5b803590602001918460208302840111640100000000831117156102f757600080fd5b919080806020026020016040519081016040528093929190818152602001838360200280828437600081840152601f19601f8201169050808301925050505050505091929192908035906020019064010000000081111561035757600080fd5b82018360208201111561036957600080fd5b8035906020019184602083028401116401000000008311171561038b57600080fd5b919080806020026020016040519081016040528093929190818152602001838360200280828437600081840152601f19601f820116905080830192505050505050509192919290803590602001906401000000008111156103eb57600080fd5b8201836020820111156103fd57600080fd5b8035906020019184602083028401116401000000008311171561041f57600080fd5b919080806020026020016040519081016040528093929190818152602001838360200280828437600081840152601f19601f82011690508083019250505050505050919291929050505061089a565b005b34801561047c57600080fd5b50610485610c3e565b604051808273ffffffffffffffffffffffffffffffffffffffff1673ffffffffffffffffffffffffffffffffffffffff16815260200191505060405180910390f35b6104f3600480360360208110156104dd57600080fd5b8101908080359060200190929190505050610c64565b005b34801561050157600080fd5b5061050a610d5b565b6040518082815260200191505060405180910390f35b34801561052c57600080fd5b50610535610d61565b6040518082815260200191505060405180910390f35b60046020528160005260406000208181548110151561056657fe5b9060005260206000209060020201600091509150508060000154908060010154905082565b600360009054906101000a900460ff1681565b60076020528060005260406000206000915090505481565b6002548042111515610613576040517f08c379a0000000000000000000000000000000000000000000000000000000008152600401808060200182810382526035815260200180610f736035913960400191505060405180910390fd5b600360009054906101000a900460ff1615151561067b576040517f08c379a0000000000000000000000000000000000000000000000000000000008152600401808060200182810382526038815260200180610f066038913960400191505060405180910390fd5b7fdaec4582d5d9595688c8c98545fdd1c696d41c6aeaeb636737e84ed2f5c00eda600560009054906101000a900473ffffffffffffffffffffffffffffffffffffffff16600654604051808373ffffffffffffffffffffffffffffffffffffffff1673ffffffffffffffffffffffffffffffffffffffff1681526020018281526020019250505060405180910390a16001600360006101000a81548160ff0219169083151502179055506000809054906101000a900473ffffffffffffffffffffffffffffffffffffffff1673ffffffffffffffffffffffffffffffffffffffff166108fc6006549081150290604051600060405180830381858888f1935050505015801561078e573d6000803e3d6000fd5b5050565b6000809054906101000a900473ffffffffffffffffffffffffffffffffffffffff1681565b6000600760003373ffffffffffffffffffffffffffffffffffffffff1673ffffffffffffffffffffffffffffffffffffffff1681526020019081526020016000205490506000811115610891576000600760003373ffffffffffffffffffffffffffffffffffffffff1673ffffffffffffffffffffffffffffffffffffffff168152602001908152602001600020819055503373ffffffffffffffffffffffffffffffffffffffff166108fc829081150290604051600060405180830381858888f1935050505015801561088f573d6000803e3d6000fd5b505b50565b60015481565b60015480421115156108f7576040517f08c379a0000000000000000000000000000000000000000000000000000000008152600401808060200182810382526035815260200180610f736035913960400191505060405180910390fd5b6002548042101515610954576040517f08c379a0000000000000000000000000000000000000000000000000000000008152600401808060200182810382526036815260200180610ed06036913960400191505060405180910390fd5b6000600460003373ffffffffffffffffffffffffffffffffffffffff1673ffffffffffffffffffffffffffffffffffffffff1681526020019081526020016000208054905090508086511415156109f6576040517f08c379a0000000000000000000000000000000000000000000000000000000008152600401808060200182810382526035815260200180610f3e6035913960400191505060405180910390fd5b808551141515610a51576040517f08c379a0000000000000000000000000000000000000000000000000000000008152600401808060200182810382526033815260200180610fa86033913960400191505060405180910390fd5b808451141515610aac576040517f08c379a0000000000000000000000000000000000000000000000000000000008152600401808060200182810382526035815260200180610e9b6035913960400191505060405180910390fd5b600080600090505b82811015610c34576000600460003373ffffffffffffffffffffffffffffffffffffffff1673ffffffffffffffffffffffffffffffffffffffff16815260200190815260200160002082815481101515610b0a57fe5b9060005260206000209060020201905060008060008b85815181101515610b2d57fe5b906020019060200201518b86815181101515610b4557fe5b906020019060200201518b87815181101515610b5d57fe5b906020019060200201519250925092508282826040516020018084815260200183151515157f01000000000000000000000000000000000000000000000000000000000000000281526001018281526020019350505050604051602081830303815290604052805190602001208460000154141515610bdf5750505050610c27565b83600101548601955081158015610bfa575082846001015410155b15610c1557610c093384610d67565b15610c145782860395505b5b60006001028460000181905550505050505b8080600101915050610ab4565b5050505050505050565b600560009054906101000a900473ffffffffffffffffffffffffffffffffffffffff1681565b6001548042101515610cc1576040517f08c379a0000000000000000000000000000000000000000000000000000000008152600401808060200182810382526036815260200180610ed06036913960400191505060405180910390fd5b600460003373ffffffffffffffffffffffffffffffffffffffff1673ffffffffffffffffffffffffffffffffffffffff1681526020019081526020016000206040805190810160405280848152602001348152509080600181540180825580915050906001820390600052602060002090600202016000909192909190915060008201518160000155602082015181600101555050505050565b60025481565b60065481565b600060065482111515610d7d5760009050610e94565b600073ffffffffffffffffffffffffffffffffffffffff16600560009054906101000a900473ffffffffffffffffffffffffffffffffffffffff1673ffffffffffffffffffffffffffffffffffffffff16141515610e475760065460076000600560009054906101000a900473ffffffffffffffffffffffffffffffffffffffff1673ffffffffffffffffffffffffffffffffffffffff1673ffffffffffffffffffffffffffffffffffffffff168152602001908152602001600020600082825401925050819055505b8160068190555082600560006101000a81548173ffffffffffffffffffffffffffffffffffffffff021916908373ffffffffffffffffffffffffffffffffffffffff160217905550600190505b9291505056fe696e20426c696e6441756374696f6e3a72657665616c28292e20536563726574206c656e67746820646f206e6f74206d617463682e696e20426c696e6441756374696f6e3a6f6e6c794265666f726528292e2043757272656e742074696d6520697320677265617465722e696e20426c696e6441756374696f6e3a61756374696f6e456e6428292e2041756374696f6e2068617320616c726561647920656e6465642e696e20426c696e6441756374696f6e3a72657665616c28292e2056616c756573206c656e67746820646f206e6f74206d617463682e696e20426c696e6441756374696f6e3a6f6e6c79416674657228292e2043757272656e742074696d6520697320736d616c6c65722e696e20426c696e6441756374696f6e3a72657665616c28292e2046616b65206c656e67746820646f206e6f74206d617463682ea165627a7a72305820121dc80fbf1081ba4913c745448edf6de73ac21c5b64c10e49992e2ff9e199990029696e20426c696e6441756374696f6e3a636f6e7374727563746f7228292e2042656e656669636961727920697320616464726573732830292e696e20426c696e6441756374696f6e3a636f6e7374727563746f7228292e2042696464696e672074696d6520697320302e",
  "source": "pragma solidity >0.4.23 <0.7.0;\n\n/// @title BlindAuction contract\n/// @author Balaji Shetty Pachai\n/// @notice A blind auction on a transparent computing platform, during the bidding period\n/// a bidder does not actually send their bid, but only a hashed version of it.\ncontract BlindAuction {\n    struct Bid {\n        bytes32 blindedBid;\n        uint256 deposit;\n    }\n\n    address payable public beneficiary;\n    uint256 public biddingEnd;\n    uint256 public revealEnd;\n    bool public ended;\n\n    mapping(address => Bid[]) public bids;\n\n    address public highestBidder;\n    uint256 public highestBid;\n\n    // Allowed withdrawals of previous bids\n    mapping(address => uint256) public pendingReturns;\n\n    event AuctionEnded(address winner, uint256 highestBid);\n\n    modifier onlyBefore(uint256 _time) {\n        require(now < _time, \"in BlindAuction:onlyBefore(). Current time is greater.\");\n        _;\n    }\n\n    modifier onlyAfter(uint256 _time) {\n        require(now > _time, \"in BlindAuction:onlyAfter(). Current time is smaller.\");\n        _;\n    }\n\n    /// @notice Constructor function \n    constructor (uint256 _biddingTime, uint256 _revealTime, address payable _beneficiary) public {\n        require(_beneficiary != address(0), \"in BlindAuction:constructor(). Beneficiary is address(0).\");\n        require(_biddingTime > 0, \"in BlindAuction:constructor(). Bidding time is 0.\");\n        \n        beneficiary = _beneficiary;\n        biddingEnd = now + _biddingTime;\n        revealEnd = biddingEnd + _revealTime;\n\n    } \n\n    /// @notice Place a blinded bid with `_blindedBid` =\n    /// keccak256(abi.encodePacked(value, fake, secret)).\n    /// The sent ether is only refunded if the bid is correctly\n    /// revealed in the revealing phase. The bid is valid if the\n    /// ether sent together with the bid is at least \"value\" and\n    /// \"fake\" is not true. Setting \"fake\" to true and sending\n    /// not the exact amount are ways to hide the real bid but\n    /// still make the required deposit. The same address can\n    /// place multiple bids.\n    function bid(bytes32 _blindedBid) public payable onlyBefore(biddingEnd) {\n        bids[msg.sender].push(Bid({\n            blindedBid: _blindedBid,\n            deposit: msg.value\n        }));\n    }\n\n    /// @notice Reveal your blinded bids. You will get a refund for all\n    /// correctly blinded invalid bids and for all bids except for\n    /// the totally highest.\n    function reveal(\n        uint256[] memory _values,\n        bool[] memory _fake,\n        bytes32[] memory _secret\n    ) \n        public  \n        onlyAfter(biddingEnd)\n        onlyBefore(revealEnd)\n    {\n        uint256 length = bids[msg.sender].length;\n\n        require(_values.length == length, \"in BlindAuction:reveal(). Values length do not match.\");\n        require(_fake.length == length, \"in BlindAuction:reveal(). Fake length do not match.\");\n        require(_secret.length == length, \"in BlindAuction:reveal(). Secret length do not match.\");\n\n        uint256 refund;\n        for (uint256 i = 0; i < length; i++) {\n            Bid storage bidToCheck = bids[msg.sender][i];\n            (uint256 value, bool fake, bytes32 secret) = (_values[i], _fake[i], _secret[i]);\n            if (bidToCheck.blindedBid != keccak256(abi.encodePacked(value, fake, secret))) {\n                // Bid was not actually revealed\n                // Do not refund deposit\n                continue;\n            }\n            refund += bidToCheck.deposit;\n            if (!fake && bidToCheck.deposit >= value) {\n                if (placeBid(msg.sender, value)) {\n                    refund -= value;\n                }\n            }\n            // Make it impossible for the sender to re-claim the same deposit\n            bidToCheck.blindedBid = bytes32(0);\n        }\n    }\n\n    // Withdraw bid that was overbid\n    function withdraw() public {\n        uint256 amount = pendingReturns[msg.sender];\n        if (amount > 0) {\n            pendingReturns[msg.sender] = 0;\n            msg.sender.transfer(amount);\n        }\n    }\n\n    function auctionEnd() public onlyAfter(revealEnd) {\n        require(!ended, \"in BlindAuction:auctionEnd(). Auction has already ended.\");\n        emit AuctionEnded(highestBidder, highestBid);\n        ended = true;\n        beneficiary.transfer(highestBid);\n    }\n\n    // This is an \"internal\" function which means that it\n    // can only be called from the contract itself (or from\n    // derived contracts).\n    function placeBid(address bidder, uint256 value) internal returns (bool success) {\n        if (value <= highestBid) {\n            return false;\n        }\n\n        if (highestBidder != address(0)) {\n            // Refund the previously highest bidder\n            pendingReturns[highestBidder] += highestBid;\n        }\n        highestBid = value;\n        highestBidder = bidder;\n        return true;\n    }\n\n    \n\n\n\n}",
  "sourcePath": "/home/balaji/Desktop/learning/smart-contract-for-fun/solidity-readthe-docs/contracts/BlindAuction.sol",
  "compiler": {
    "name": "solc",
    "version": "0.5.2+commit.1df8f40c.Emscripten.clang"
  },
  "schemaVersion": "3.0.16",
  "updatedAt": "2019-09-26T06:40:24.598Z",
  "devdoc": {
    "author": "Balaji Shetty Pachai",
    "methods": {},
    "title": "BlindAuction contract"
  },
  "userdoc": {
    "methods": {
      "bid(bytes32)": {
        "notice": "Place a blinded bid with `_blindedBid` = keccak256(abi.encodePacked(value, fake, secret)). The sent ether is only refunded if the bid is correctly revealed in the revealing phase. The bid is valid if the ether sent together with the bid is at least \"value\" and \"fake\" is not true. Setting \"fake\" to true and sending not the exact amount are ways to hide the real bid but still make the required deposit. The same address can place multiple bids."
      },
      "constructor": "Constructor function ",
      "reveal(uint256[],bool[],bytes32[])": {
        "notice": "Reveal your blinded bids. You will get a refund for all correctly blinded invalid bids and for all bids except for the totally highest."
      }
    },
    "notice": "A blind auction on a transparent computing platform, during the bidding period a bidder does not actually send their bid, but only a hashed version of it."
  }
}