{
  "contractName": "Purchase",
  "abi": [
    {
      "constant": true,
      "inputs": [],
      "name": "seller",
      "outputs": [
        {
          "name": "",
          "type": "address"
        }
      ],
      "payable": false,
      "stateMutability": "view",
      "type": "function"
    },
    {
      "constant": true,
      "inputs": [
        {
          "name": "",
          "type": "uint256"
        }
      ],
      "name": "ownerOfValue",
      "outputs": [
        {
          "name": "",
          "type": "address"
        }
      ],
      "payable": false,
      "stateMutability": "view",
      "type": "function"
    },
    {
      "constant": true,
      "inputs": [
        {
          "name": "",
          "type": "address"
        }
      ],
      "name": "pendingReturns",
      "outputs": [
        {
          "name": "",
          "type": "uint256"
        }
      ],
      "payable": false,
      "stateMutability": "view",
      "type": "function"
    },
    {
      "constant": true,
      "inputs": [],
      "name": "value",
      "outputs": [
        {
          "name": "",
          "type": "uint256"
        }
      ],
      "payable": false,
      "stateMutability": "view",
      "type": "function"
    },
    {
      "constant": true,
      "inputs": [],
      "name": "buyer",
      "outputs": [
        {
          "name": "",
          "type": "address"
        }
      ],
      "payable": false,
      "stateMutability": "view",
      "type": "function"
    },
    {
      "constant": true,
      "inputs": [],
      "name": "state",
      "outputs": [
        {
          "name": "",
          "type": "uint8"
        }
      ],
      "payable": false,
      "stateMutability": "view",
      "type": "function"
    },
    {
      "inputs": [
        {
          "name": "_value",
          "type": "uint256"
        }
      ],
      "payable": false,
      "stateMutability": "nonpayable",
      "type": "constructor"
    },
    {
      "anonymous": false,
      "inputs": [
        {
          "indexed": true,
          "name": "abortedBy",
          "type": "address"
        },
        {
          "indexed": true,
          "name": "reason",
          "type": "string"
        },
        {
          "indexed": true,
          "name": "timestamp",
          "type": "uint256"
        }
      ],
      "name": "Aborted",
      "type": "event"
    },
    {
      "anonymous": false,
      "inputs": [
        {
          "indexed": true,
          "name": "confirmedBy",
          "type": "address"
        },
        {
          "indexed": true,
          "name": "timestamp",
          "type": "uint256"
        }
      ],
      "name": "PurchaseConfirmed",
      "type": "event"
    },
    {
      "anonymous": false,
      "inputs": [
        {
          "indexed": true,
          "name": "receivedBy",
          "type": "address"
        },
        {
          "indexed": true,
          "name": "timestamp",
          "type": "uint256"
        }
      ],
      "name": "ItemReceived",
      "type": "event"
    },
    {
      "constant": false,
      "inputs": [
        {
          "name": "reason",
          "type": "string"
        }
      ],
      "name": "abort",
      "outputs": [],
      "payable": false,
      "stateMutability": "nonpayable",
      "type": "function"
    },
    {
      "constant": false,
      "inputs": [],
      "name": "confirmPurchase",
      "outputs": [],
      "payable": true,
      "stateMutability": "payable",
      "type": "function"
    },
    {
      "constant": false,
      "inputs": [],
      "name": "confirmReceived",
      "outputs": [],
      "payable": false,
      "stateMutability": "nonpayable",
      "type": "function"
    },
    {
      "constant": false,
      "inputs": [],
      "name": "withdraw",
      "outputs": [],
      "payable": false,
      "stateMutability": "nonpayable",
      "type": "function"
    }
  ],
  "bytecode": "0x608060405234801561001057600080fd5b50604051602080610fc98339810180604052602081101561003057600080fd5b8101908080519060200190929190505050600073ffffffffffffffffffffffffffffffffffffffff163373ffffffffffffffffffffffffffffffffffffffff16141515156100c9576040517f08c379a0000000000000000000000000000000000000000000000000000000008152600401808060200182810382526039815260200180610f906039913960400191505060405180910390fd5b33600160006101000a81548173ffffffffffffffffffffffffffffffffffffffff021916908373ffffffffffffffffffffffffffffffffffffffff1602179055508060008190555033600360008054815260200190815260200160002060006101000a81548173ffffffffffffffffffffffffffffffffffffffff021916908373ffffffffffffffffffffffffffffffffffffffff16021790555050610e1c806101746000396000f3fe6080604052600436106100ae576000357c0100000000000000000000000000000000000000000000000000000000900480633fa4f245116100765780633fa4f245146102c95780637150d8ae146102f457806373fac6f01461034b578063c19d93fb14610362578063d69606971461039b576100ae565b806308551a53146100b3578063195efcab1461010a57806326b387bb1461018557806335acac4e146101ea5780633ccfd60b146102b2575b600080fd5b3480156100bf57600080fd5b506100c86103a5565b604051808273ffffffffffffffffffffffffffffffffffffffff1673ffffffffffffffffffffffffffffffffffffffff16815260200191505060405180910390f35b34801561011657600080fd5b506101436004803603602081101561012d57600080fd5b81019080803590602001909291905050506103cb565b604051808273ffffffffffffffffffffffffffffffffffffffff1673ffffffffffffffffffffffffffffffffffffffff16815260200191505060405180910390f35b34801561019157600080fd5b506101d4600480360360208110156101a857600080fd5b81019080803573ffffffffffffffffffffffffffffffffffffffff1690602001909291905050506103fe565b6040518082815260200191505060405180910390f35b3480156101f657600080fd5b506102b06004803603602081101561020d57600080fd5b810190808035906020019064010000000081111561022a57600080fd5b82018360208201111561023c57600080fd5b8035906020019184600183028401116401000000008311171561025e57600080fd5b91908080601f016020809104026020016040519081016040528093929190818152602001838380828437600081840152601f19601f820116905080830192505050505050509192919290505050610416565b005b3480156102be57600080fd5b506102c761066c565b005b3480156102d557600080fd5b506102de610804565b6040518082815260200191505060405180910390f35b34801561030057600080fd5b5061030961080a565b604051808273ffffffffffffffffffffffffffffffffffffffff1673ffffffffffffffffffffffffffffffffffffffff16815260200191505060405180910390f35b34801561035757600080fd5b50610360610830565b005b34801561036e57600080fd5b50610377610a9d565b6040518082600281111561038757fe5b60ff16815260200191505060405180910390f35b6103a3610ab0565b005b600160009054906101000a900473ffffffffffffffffffffffffffffffffffffffff1681565b60036020528060005260406000206000915054906101000a900473ffffffffffffffffffffffffffffffffffffffff1681565b60046020528060005260406000206000915090505481565b600160009054906101000a900473ffffffffffffffffffffffffffffffffffffffff1673ffffffffffffffffffffffffffffffffffffffff163373ffffffffffffffffffffffffffffffffffffffff161415156104be576040517f08c379a0000000000000000000000000000000000000000000000000000000008152600401808060200182810382526033815260200180610d8c6033913960400191505060405180910390fd5b60008060028111156104cc57fe5b600560009054906101000a900460ff1660028111156104e757fe5b14151561053f576040517f08c379a0000000000000000000000000000000000000000000000000000000008152600401808060200182810382526025815260200180610cc86025913960400191505060405180910390fd5b42826040518082805190602001908083835b6020831015156105765780518252602082019150602081019050602083039250610551565b6001836020036101000a03801982511681845116808217855250505050505090500191505060405180910390203373ffffffffffffffffffffffffffffffffffffffff167f3d40f4eee37cd5eada5f8009a55f4a4af1df2d79961f1e0d3e01887692b1209360405160405180910390a46002600560006101000a81548160ff0219169083600281111561060557fe5b02179055503373ffffffffffffffffffffffffffffffffffffffff166108fc3073ffffffffffffffffffffffffffffffffffffffff16319081150290604051600060405180830381858888f19350505050158015610667573d6000803e3d6000fd5b505050565b600180600281111561067a57fe5b600560009054906101000a900460ff16600281111561069557fe5b1415156106ed576040517f08c379a0000000000000000000000000000000000000000000000000000000008152600401808060200182810382526025815260200180610cc86025913960400191505060405180910390fd5b600073ffffffffffffffffffffffffffffffffffffffff163373ffffffffffffffffffffffffffffffffffffffff1614151515610775576040517f08c379a0000000000000000000000000000000000000000000000000000000008152600401808060200182810382526036815260200180610d196036913960400191505060405180910390fd5b6000600460003373ffffffffffffffffffffffffffffffffffffffff1673ffffffffffffffffffffffffffffffffffffffff1681526020019081526020016000205490503373ffffffffffffffffffffffffffffffffffffffff166108fc829081150290604051600060405180830381858888f193505050501580156107ff573d6000803e3d6000fd5b505050565b60005481565b600260009054906101000a900473ffffffffffffffffffffffffffffffffffffffff1681565b600260009054906101000a900473ffffffffffffffffffffffffffffffffffffffff1673ffffffffffffffffffffffffffffffffffffffff163373ffffffffffffffffffffffffffffffffffffffff161415156108d8576040517f08c379a0000000000000000000000000000000000000000000000000000000008152600401808060200182810382526032815260200180610dbf6032913960400191505060405180910390fd5b60018060028111156108e657fe5b600560009054906101000a900460ff16600281111561090157fe5b141515610959576040517f08c379a0000000000000000000000000000000000000000000000000000000008152600401808060200182810382526025815260200180610cc86025913960400191505060405180910390fd5b423373ffffffffffffffffffffffffffffffffffffffff167f6ed37d58b33e787ace85d1396bd170e59628aa459524f8d72c4d345cd3fd916b60405160405180910390a36002600560006101000a81548160ff021916908360028111156109bc57fe5b02179055503073ffffffffffffffffffffffffffffffffffffffff163160046000600160009054906101000a900473ffffffffffffffffffffffffffffffffffffffff1673ffffffffffffffffffffffffffffffffffffffff1673ffffffffffffffffffffffffffffffffffffffff1681526020019081526020016000206000828254019250508190555033600360008054815260200190815260200160002060006101000a81548173ffffffffffffffffffffffffffffffffffffffff021916908373ffffffffffffffffffffffffffffffffffffffff16021790555050565b600560009054906101000a900460ff1681565b6000806002811115610abe57fe5b600560009054906101000a900460ff166002811115610ad957fe5b141515610b31576040517f08c379a0000000000000000000000000000000000000000000000000000000008152600401808060200182810382526025815260200180610cc86025913960400191505060405180910390fd5b671bc16d674ec8000034111515610b93576040517f08c379a000000000000000000000000000000000000000000000000000000000815260040180806020018281038252602c815260200180610ced602c913960400191505060405180910390fd5b600073ffffffffffffffffffffffffffffffffffffffff163373ffffffffffffffffffffffffffffffffffffffff1614151515610c1b576040517f08c379a000000000000000000000000000000000000000000000000000000000815260040180806020018281038252603d815260200180610d4f603d913960400191505060405180910390fd5b423373ffffffffffffffffffffffffffffffffffffffff167fa29484a0d47153a96f00a1369c6885bbc89e95e35273ee97c943c440f7c4c28260405160405180910390a333600260006101000a81548173ffffffffffffffffffffffffffffffffffffffff021916908373ffffffffffffffffffffffffffffffffffffffff1602179055506001600560006101000a81548160ff02191690836002811115610cbf57fe5b02179055505056fe696e2050757263686173653a696e537461746528292e20496e76616c69642073746174652e696e2050757263686173653a636f6e646974696f6e28292e20436f6e646974696f6e2069732066616c73652e696e2050757263686173653a776974686472617728292e2043616c6c65722063616e6e6f742062652061646472657373207a65726f2e696e2050757263686173653a636f6e6669726d507572636861736528292e2043616c6c65722063616e6e6f742062652061646472657373207a65726f2e696e2050757263686173653a6f6e6c79427579657228292e204f6e6c792073656c6c65722063616e2063616c6c20746869732e696e2050757263686173653a6f6e6c79427579657228292e204f6e6c792062757965722063616e2063616c6c20746869732ea165627a7a7230582052ade35289132daa47ecccdf823a2c346e5f3d3e554248efdfabedae4f1377850029696e2050757263686173653a636f6e7374727563746f7228292e2043616c6c65722063616e6e6f742062652061646472657373207a65726f2e",
  "source": "pragma solidity >=0.4.22 <0.7.0;\n\n/// @title Purchase Contract\n/// @author Balaji Shetty Pachai\n/// @notice A safe remote purchase smart contract\n/// @notice Withdrawal pattern has been used instead of direct trasfer\ncontract Purchase {\n    // Consider value to be an ERC721 Token representing a Television\n    uint256 public value;\n    address payable public seller;\n    address payable public buyer;\n\n    mapping(uint256 => address) public ownerOfValue;\n    mapping(address => uint256) public pendingReturns;\n\n    enum State { Created, Locked, Inactive }\n    State public state;\n\n    // Consider _value to be a valid ERC721 token ID\n    constructor(uint256 _value) public {\n        require(msg.sender != address(0), \"in Purchase:constructor(). Caller cannot be address zero.\");\n        seller = msg.sender;\n        value = _value;\n        ownerOfValue[value] = msg.sender;\n        \n    }\n\n    modifier condition() {\n        require(msg.value > 2 ether, \"in Purchase:condition(). Condition is false.\");\n        _;\n    }\n\n    modifier onlyBuyer() {\n        require(msg.sender == buyer, \"in Purchase:onlyBuyer(). Only buyer can call this.\");\n        _;\n    }\n\n    modifier onlySeller() {\n        require(msg.sender == seller, \"in Purchase:onlyBuyer(). Only seller can call this.\");\n        _;\n    }\n\n    modifier inState(State _state) {\n        require(state == _state, \"in Purchase:inState(). Invalid state.\");\n        _;\n    }\n\n    event Aborted(address indexed abortedBy, string indexed reason, uint256 indexed timestamp);\n    event PurchaseConfirmed(address indexed confirmedBy, uint256 indexed timestamp);\n    event ItemReceived(address indexed receivedBy, uint256 indexed timestamp);\n\n    /// Abort the purchase and reclaim the ether.\n    /// Can only be called by the seller before\n    /// the contract is locked.\n    /// Added a reason string to better know why the sell is being aborted\n    function abort(string memory reason) public onlySeller inState(State.Created) {\n        emit Aborted(msg.sender, reason, now);\n        state = State.Inactive;\n        msg.sender.transfer(address(this).balance);\n    }\n\n    /// Confirm the purchase as buyer.\n    /// Transaction has to include `2 * value` ether.\n    /// The ether will be locked until confirmReceived\n    /// is called.\n    function confirmPurchase() public inState(State.Created) condition payable {\n        require(msg.sender != address(0), \"in Purchase:confirmPurchase(). Caller cannot be address zero.\");\n        emit PurchaseConfirmed(msg.sender, now);\n        buyer = msg.sender;\n        state = State.Locked;\n    }\n\n    /// Confirm that you (the buyer) received the item.\n    /// This will release the locked ether.\n    function confirmReceived() public onlyBuyer inState(State.Locked) {\n        emit ItemReceived(msg.sender, now);\n        // It is important to change the state first because\n        // otherwise, the contracts called using `send` below\n        // can call in again here.\n        state = State.Inactive;\n        pendingReturns[seller] += address(this).balance;\n        ownerOfValue[value] = msg.sender;\n    }\n\n    function withdraw() public inState(State.Locked) {\n        require(msg.sender != address(0), \"in Purchase:withdraw(). Caller cannot be address zero.\");\n        uint256 amountToTransfer = pendingReturns[msg.sender];\n        msg.sender.transfer(amountToTransfer);\n    }\n\n\n}",
  "sourcePath": "/home/balaji/Desktop/learning/smart-contract-for-fun/solidity-readthe-docs/contracts/Purchase.sol",
  "compiler": {
    "name": "solc",
    "version": "0.5.2+commit.1df8f40c.Emscripten.clang"
  },
  "schemaVersion": "3.0.16",
  "updatedAt": "2019-09-27T10:29:24.589Z",
  "devdoc": {
    "author": "Balaji Shetty Pachai",
    "methods": {},
    "title": "Purchase Contract"
  },
  "userdoc": {
    "methods": {
      "abort(string)": {
        "notice": "Abort the purchase and reclaim the ether. Can only be called by the seller before the contract is locked. Added a reason string to better know why the sell is being aborted"
      },
      "confirmPurchase()": {
        "notice": "Confirm the purchase as buyer. Transaction has to include `2 * value` ether. The ether will be locked until confirmReceived is called."
      },
      "confirmReceived()": {
        "notice": "Confirm that you (the buyer) received the item. This will release the locked ether."
      }
    },
    "notice": "A safe remote purchase smart contractWithdrawal pattern has been used instead of direct trasfer"
  }
}