{
  "contractName": "SimpleAuction",
  "abi": [
    {
      "constant": true,
      "inputs": [
        {
          "name": "",
          "type": "address"
        }
      ],
      "name": "pendingReturns",
      "outputs": [
        {
          "name": "",
          "type": "uint256"
        }
      ],
      "payable": false,
      "stateMutability": "view",
      "type": "function"
    },
    {
      "constant": true,
      "inputs": [],
      "name": "beneficiary",
      "outputs": [
        {
          "name": "",
          "type": "address"
        }
      ],
      "payable": false,
      "stateMutability": "view",
      "type": "function"
    },
    {
      "constant": true,
      "inputs": [],
      "name": "auctionEndTime",
      "outputs": [
        {
          "name": "",
          "type": "uint256"
        }
      ],
      "payable": false,
      "stateMutability": "view",
      "type": "function"
    },
    {
      "constant": true,
      "inputs": [],
      "name": "highestBidder",
      "outputs": [
        {
          "name": "",
          "type": "address"
        }
      ],
      "payable": false,
      "stateMutability": "view",
      "type": "function"
    },
    {
      "constant": true,
      "inputs": [],
      "name": "highestBid",
      "outputs": [
        {
          "name": "",
          "type": "uint256"
        }
      ],
      "payable": false,
      "stateMutability": "view",
      "type": "function"
    },
    {
      "inputs": [
        {
          "name": "_biddingTime",
          "type": "uint256"
        },
        {
          "name": "_beneficiary",
          "type": "address"
        }
      ],
      "payable": false,
      "stateMutability": "nonpayable",
      "type": "constructor"
    },
    {
      "anonymous": false,
      "inputs": [
        {
          "indexed": false,
          "name": "bidder",
          "type": "address"
        },
        {
          "indexed": false,
          "name": "amount",
          "type": "uint256"
        }
      ],
      "name": "HighestBidIncreased",
      "type": "event"
    },
    {
      "anonymous": false,
      "inputs": [
        {
          "indexed": false,
          "name": "winner",
          "type": "address"
        },
        {
          "indexed": false,
          "name": "amount",
          "type": "uint256"
        }
      ],
      "name": "AuctionEnded",
      "type": "event"
    },
    {
      "constant": false,
      "inputs": [],
      "name": "bid",
      "outputs": [],
      "payable": true,
      "stateMutability": "payable",
      "type": "function"
    },
    {
      "constant": false,
      "inputs": [],
      "name": "withdraw",
      "outputs": [
        {
          "name": "",
          "type": "bool"
        }
      ],
      "payable": false,
      "stateMutability": "nonpayable",
      "type": "function"
    },
    {
      "constant": false,
      "inputs": [],
      "name": "auctionEnd",
      "outputs": [],
      "payable": false,
      "stateMutability": "nonpayable",
      "type": "function"
    }
  ],
  "bytecode": "0x608060405234801561001057600080fd5b50604051604080610bf88339810180604052604081101561003057600080fd5b810190808051906020019092919080519060200190929190505050600073ffffffffffffffffffffffffffffffffffffffff168173ffffffffffffffffffffffffffffffffffffffff16141515156100d3576040517f08c379a0000000000000000000000000000000000000000000000000000000008152600401808060200182810382526043815260200180610bb56043913960600191505060405180910390fd5b806000806101000a81548173ffffffffffffffffffffffffffffffffffffffff021916908373ffffffffffffffffffffffffffffffffffffffff1602179055508142016001819055505050610a888061012d6000396000f3fe608060405260043610610098576000357c0100000000000000000000000000000000000000000000000000000000900480633ccfd60b1161006b5780633ccfd60b1461017a5780634b449cba146101a957806391f90157146101d4578063d57bde791461022b57610098565b80631998aeef1461009d57806326b387bb146100a75780632a24f46c1461010c57806338af3eed14610123575b600080fd5b6100a5610256565b005b3480156100b357600080fd5b506100f6600480360360208110156100ca57600080fd5b81019080803573ffffffffffffffffffffffffffffffffffffffff169060200190929190505050610525565b6040518082815260200191505060405180910390f35b34801561011857600080fd5b5061012161053d565b005b34801561012f57600080fd5b50610138610718565b604051808273ffffffffffffffffffffffffffffffffffffffff1673ffffffffffffffffffffffffffffffffffffffff16815260200191505060405180910390f35b34801561018657600080fd5b5061018f61073d565b604051808215151515815260200191505060405180910390f35b3480156101b557600080fd5b506101be6108b4565b6040518082815260200191505060405180910390f35b3480156101e057600080fd5b506101e96108ba565b604051808273ffffffffffffffffffffffffffffffffffffffff1673ffffffffffffffffffffffffffffffffffffffff16815260200191505060405180910390f35b34801561023757600080fd5b506102406108e0565b6040518082815260200191505060405180910390f35b600073ffffffffffffffffffffffffffffffffffffffff163373ffffffffffffffffffffffffffffffffffffffff16141515156102de576040517f08c379a000000000000000000000000000000000000000000000000000000000815260040180806020018281038252603681526020018061091d6036913960400191505060405180910390fd5b600034111515610339576040517f08c379a000000000000000000000000000000000000000000000000000000000815260040180806020018281038252603a815260200180610a23603a913960400191505060405180910390fd5b6001544211151515610396576040517f08c379a000000000000000000000000000000000000000000000000000000000815260040180806020018281038252602e8152602001806109c0602e913960400191505060405180910390fd5b600354341115156103f2576040517f08c379a00000000000000000000000000000000000000000000000000000000081526004018080602001828103825260368152602001806108e76036913960400191505060405180910390fd5b60006003541415156104705760035460046000600260009054906101000a900473ffffffffffffffffffffffffffffffffffffffff1673ffffffffffffffffffffffffffffffffffffffff1673ffffffffffffffffffffffffffffffffffffffff168152602001908152602001600020600082825401925050819055505b33600260006101000a81548173ffffffffffffffffffffffffffffffffffffffff021916908373ffffffffffffffffffffffffffffffffffffffff160217905550346003819055507ff4757a49b326036464bec6fe419a4ae38c8a02ce3e68bf0809674f6aab8ad3003334604051808373ffffffffffffffffffffffffffffffffffffffff1673ffffffffffffffffffffffffffffffffffffffff1681526020018281526020019250505060405180910390a1565b60046020528060005260406000206000915090505481565b600154421015151561059a576040517f08c379a00000000000000000000000000000000000000000000000000000000081526004018080602001828103825260358152602001806109ee6035913960400191505060405180910390fd5b600560009054906101000a900460ff16151515610602576040517f08c379a00000000000000000000000000000000000000000000000000000000081526004018080602001828103825260398152602001806109536039913960400191505060405180910390fd5b6001600560006101000a81548160ff0219169083151502179055507fdaec4582d5d9595688c8c98545fdd1c696d41c6aeaeb636737e84ed2f5c00eda600260009054906101000a900473ffffffffffffffffffffffffffffffffffffffff16600354604051808373ffffffffffffffffffffffffffffffffffffffff1673ffffffffffffffffffffffffffffffffffffffff1681526020018281526020019250505060405180910390a16000809054906101000a900473ffffffffffffffffffffffffffffffffffffffff1673ffffffffffffffffffffffffffffffffffffffff166108fc6003549081150290604051600060405180830381858888f19350505050158015610715573d6000803e3d6000fd5b50565b6000809054906101000a900473ffffffffffffffffffffffffffffffffffffffff1681565b600080600460003373ffffffffffffffffffffffffffffffffffffffff1673ffffffffffffffffffffffffffffffffffffffff1681526020019081526020016000205490506000811115156107dd576040517f08c379a000000000000000000000000000000000000000000000000000000000815260040180806020018281038252603481526020018061098c6034913960400191505060405180910390fd5b6000600460003373ffffffffffffffffffffffffffffffffffffffff1673ffffffffffffffffffffffffffffffffffffffff168152602001908152602001600020819055503373ffffffffffffffffffffffffffffffffffffffff166108fc829081150290604051600060405180830381858888f1935050505015156108ab5780600460003373ffffffffffffffffffffffffffffffffffffffff1673ffffffffffffffffffffffffffffffffffffffff1681526020019081526020016000208190555060009150506108b1565b60019150505b90565b60015481565b600260009054906101000a900473ffffffffffffffffffffffffffffffffffffffff1681565b6003548156fe696e2053696d706c6541756374696f6e3a62696428292e20546865726520616c7265616479206973206120686967686572206269642e696e2053696d706c6541756374696f6e3a62696428292e2043616c6c65722063616e6e6f74206265207a65726f20616464726573732e696e2053696d706c6541756374696f6e3a61756374696f6e456e6428292e2041756374696f6e2068617320616c726561647920656e6465642e696e2053696d706c6541756374696f6e3a7769746864726128292e20596f7520646964206e6f7420706c6163652061206269642e696e2053696d706c6541756374696f6e3a62696428292e2041756374696f6e20616c726561647920656e6465642e696e2053696d706c6541756374696f6e3a61756374696f6e456e6428292e2041756374696f6e206e6f742079657420656e6465642e696e2053696d706c6541756374696f6e3a62696428292e2042696420616d6f756e74206d7573742062652067726561746572207468616e20302ea165627a7a7230582011c55dcf56959c1fb63f1021e833ac704083963e511cc9556e33c7e909a4c47e0029696e2053696d706c6541756374696f6e3a636f6e7374727563746f7228292e2042656e65666963696172792063616e6e6f74206265207a65726f20616464726573732e",
  "source": "pragma solidity >=0.4.22 <0.7.0;\n\n/// @title SimpleAuction\n/// @author Balaji Shetty Pachai\n/// @notice Everyone can send their bids during a bidding period.\n/// Ref: https://solidity.readthedocs.io/en/v0.5.11/solidity-by-example.html#simple-open-auction\ncontract SimpleAuction {\n    address payable public beneficiary;\n    uint256 public auctionEndTime;\n\n    // Current state of the auction\n    address public highestBidder;\n    uint256 public highestBid;\n\n    // Allowed withdrawals of pervious bids\n    mapping(address => uint256) public pendingReturns;\n\n    // Set to true at the end, disallows any change.\n    // By default initialized to `false`.\n    bool ended;\n\n    // Events that will be emitted on changes.\n    event HighestBidIncreased(address bidder, uint256 amount);\n    event AuctionEnded(address winner, uint256 amount);\n\n    /// Create a simple auction with `_biddingTime`\n    /// seconds bidding time on behalf of the\n    /// beneficiary address `_beneficiary`\n    constructor (uint _biddingTime, address payable _beneficiary) public {\n        require(_beneficiary != address(0), \"in SimpleAuction:constructor(). Beneficiary cannot be zero address.\");\n        beneficiary = _beneficiary;\n        auctionEndTime = now + _biddingTime;\n    }\n\n    /// Bid on the auction with the value sent\n    /// together with this transaction.\n    /// The value will only be refunded if the\n    /// auction is not won.\n    function bid() public payable {\n        require(msg.sender != address(0), \"in SimpleAuction:bid(). Caller cannot be zero address.\");\n        require(msg.value > 0, \"in SimpleAuction:bid(). Bid amount must be greater than 0.\");\n        require(now <= auctionEndTime, \"in SimpleAuction:bid(). Auction already ended.\");\n        require(msg.value > highestBid, \"in SimpleAuction:bid(). There already is a higher bid.\");\n        if (highestBid != 0) {\n            pendingReturns[highestBidder] += highestBid;\n        }\n        highestBidder = msg.sender;\n        highestBid = msg.value;\n        emit HighestBidIncreased(msg.sender, msg.value);\n    }\n\n    /// Withdraw a bid that was overbid\n    function withdraw() public returns (bool) {\n        uint256 amount = pendingReturns[msg.sender];\n        require(amount > 0, \"in SimpleAuction:withdra(). You did not place a bid.\");\n        pendingReturns[msg.sender] = 0;\n        if (!msg.sender.send(amount)) {\n            pendingReturns[msg.sender] = amount;\n            return false;\n        }\n        return true;\n    }\n\n    /// End the auction and send the highest bid to the beneficiary\n    function auctionEnd() public {\n        /// 1. Conditions\n        require(now >= auctionEndTime, \"in SimpleAuction:auctionEnd(). Auction not yet ended.\");\n        require(!ended, \"in SimpleAuction:auctionEnd(). Auction has already ended.\");\n        /// 2. Effects\n        ended = true;\n        emit AuctionEnded(highestBidder, highestBid);\n        /// 3. Interaction\n        beneficiary.transfer(highestBid);\n    }\n}",
  "sourcePath": "/home/balaji/Desktop/learning/smart-contract-for-fun/solidity-readthe-docs/contracts/SimpleAuction.sol",
  "compiler": {
    "name": "solc",
    "version": "0.5.2+commit.1df8f40c.Emscripten.clang"
  },
  "schemaVersion": "3.0.16",
  "updatedAt": "2019-09-24T12:52:38.154Z",
  "devdoc": {
    "author": "Balaji Shetty Pachai",
    "methods": {},
    "title": "SimpleAuction"
  },
  "userdoc": {
    "methods": {
      "auctionEnd()": {
        "notice": "End the auction and send the highest bid to the beneficiary"
      },
      "bid()": {
        "notice": "Bid on the auction with the value sent together with this transaction. The value will only be refunded if the auction is not won."
      },
      "constructor": "Create a simple auction with `_biddingTime` seconds bidding time on behalf of the beneficiary address `_beneficiary`",
      "withdraw()": {
        "notice": "Withdraw a bid that was overbid"
      }
    },
    "notice": "Everyone can send their bids during a bidding period. Ref: https://solidity.readthedocs.io/en/v0.5.11/solidity-by-example.html#simple-open-auction"
  }
}