{
  "contractName": "SimpleStorage",
  "abi": [
    {
      "constant": true,
      "inputs": [],
      "name": "data",
      "outputs": [
        {
          "name": "",
          "type": "uint256"
        }
      ],
      "payable": false,
      "stateMutability": "view",
      "type": "function"
    },
    {
      "inputs": [
        {
          "name": "_value",
          "type": "uint256"
        }
      ],
      "payable": false,
      "stateMutability": "nonpayable",
      "type": "constructor"
    },
    {
      "constant": false,
      "inputs": [
        {
          "name": "_value",
          "type": "uint256"
        }
      ],
      "name": "updateData",
      "outputs": [],
      "payable": false,
      "stateMutability": "nonpayable",
      "type": "function"
    },
    {
      "constant": true,
      "inputs": [],
      "name": "getData",
      "outputs": [
        {
          "name": "",
          "type": "uint256"
        }
      ],
      "payable": false,
      "stateMutability": "view",
      "type": "function"
    }
  ],
  "bytecode": "0x608060405234801561001057600080fd5b506040516020806102968339810180604052602081101561003057600080fd5b810190808051906020019092919050505060008111151561009c576040517f08c379a000000000000000000000000000000000000000000000000000000000815260040180806020018281038252603d815260200180610259603d913960400191505060405180910390fd5b80600081905550506101a6806100b36000396000f3fe608060405234801561001057600080fd5b506004361061005e576000357c01000000000000000000000000000000000000000000000000000000009004806309e96008146100635780633bc5de301461009157806373d4a13a146100af575b600080fd5b61008f6004803603602081101561007957600080fd5b81019080803590602001909291905050506100cd565b005b610099610132565b6040518082815260200191505060405180910390f35b6100b761013b565b6040518082815260200191505060405180910390f35b600081111515610128576040517f08c379a00000000000000000000000000000000000000000000000000000000081526004018080602001828103825260398152602001806101426039913960400191505060405180910390fd5b8060008190555050565b60008054905090565b6000548156fe696e2053696d706c6553746f726167653a7365744461746128292e2056616c7565206d7573742062652067726561746572207468616e20302ea165627a7a7230582065baf5284f47dc994bf98781989e096305ab70ac73ac9704ddd5ccc6dbf760bd0029696e2053696d706c6553746f726167653a636f6e7374727563746f7228292e2056616c7565206d7573742062652067726561746572207468616e20302e",
  "source": "pragma solidity 0.5.2;\n\n/// @title SimpleStorage\n/// @author Balaji Pachai \n/// @notice A SimpleStorage contract used for setting and fetching values to and from Blockchain\ncontract SimpleStorage {\n    uint256 public data;\n\n    /// @notice Constructor that sets data to the value passed in at the time of contract creation\n    constructor (uint256 _value) public {\n        require(_value > 0, \"in SimpleStorage:constructor(). Value must be greater than 0.\");\n        data = _value;\n    }\n\n    /// @notice This function will update data to the user defined value\n    /// @param _value The value that has to be used for updating data\n    function updateData(uint256 _value) public {\n        require(_value > 0, \"in SimpleStorage:setData(). Value must be greater than 0.\");\n        data = _value;\n    }\n\n    /// @notice Function that returns the value of data\n    /// @return Data's latest value\n    function getData() public view returns (uint256) {\n        return data;\n    }\n\n}",
  "sourcePath": "/home/balaji/Desktop/learning/smart-contract-for-fun/solidity-readthe-docs/contracts/SimpleStorage.sol",
  "compiler": {
    "name": "solc",
    "version": "0.5.2+commit.1df8f40c.Emscripten.clang"
  },
  "schemaVersion": "3.0.16",
  "updatedAt": "2019-09-19T09:28:45.626Z",
  "devdoc": {
    "author": "Balaji Pachai ",
    "methods": {
      "getData()": {
        "return": "Data's latest value"
      },
      "updateData(uint256)": {
        "params": {
          "_value": "The value that has to be used for updating data"
        }
      }
    },
    "title": "SimpleStorage"
  },
  "userdoc": {
    "methods": {
      "constructor": "Constructor that sets data to the value passed in at the time of contract creation",
      "getData()": {
        "notice": "Function that returns the value of data"
      },
      "updateData(uint256)": {
        "notice": "This function will update data to the user defined value"
      }
    },
    "notice": "A SimpleStorage contract used for setting and fetching values to and from Blockchain"
  }
}