{
  "contractName": "TicTacToe",
  "abi": [
    {
      "constant": true,
      "inputs": [],
      "name": "moves",
      "outputs": [
        {
          "name": "",
          "type": "uint256"
        }
      ],
      "payable": false,
      "stateMutability": "view",
      "type": "function"
    },
    {
      "constant": true,
      "inputs": [],
      "name": "isDrawn",
      "outputs": [
        {
          "name": "",
          "type": "bool"
        }
      ],
      "payable": false,
      "stateMutability": "view",
      "type": "function"
    },
    {
      "constant": true,
      "inputs": [
        {
          "name": "",
          "type": "address"
        }
      ],
      "name": "playerBalance",
      "outputs": [
        {
          "name": "",
          "type": "uint256"
        }
      ],
      "payable": false,
      "stateMutability": "view",
      "type": "function"
    },
    {
      "constant": true,
      "inputs": [],
      "name": "gamePrice",
      "outputs": [
        {
          "name": "",
          "type": "uint256"
        }
      ],
      "payable": false,
      "stateMutability": "view",
      "type": "function"
    },
    {
      "constant": true,
      "inputs": [],
      "name": "playerOneAddr",
      "outputs": [
        {
          "name": "",
          "type": "address"
        }
      ],
      "payable": false,
      "stateMutability": "view",
      "type": "function"
    },
    {
      "constant": true,
      "inputs": [],
      "name": "boardSize",
      "outputs": [
        {
          "name": "",
          "type": "uint8"
        }
      ],
      "payable": false,
      "stateMutability": "view",
      "type": "function"
    },
    {
      "constant": true,
      "inputs": [],
      "name": "gameWinner",
      "outputs": [
        {
          "name": "",
          "type": "address"
        }
      ],
      "payable": false,
      "stateMutability": "view",
      "type": "function"
    },
    {
      "constant": true,
      "inputs": [],
      "name": "playerTwoAddr",
      "outputs": [
        {
          "name": "",
          "type": "address"
        }
      ],
      "payable": false,
      "stateMutability": "view",
      "type": "function"
    },
    {
      "inputs": [],
      "payable": true,
      "stateMutability": "payable",
      "type": "constructor"
    },
    {
      "constant": false,
      "inputs": [],
      "name": "joinGame",
      "outputs": [],
      "payable": true,
      "stateMutability": "payable",
      "type": "function"
    },
    {
      "constant": false,
      "inputs": [
        {
          "name": "x",
          "type": "uint256"
        },
        {
          "name": "y",
          "type": "uint256"
        }
      ],
      "name": "setStone",
      "outputs": [],
      "payable": false,
      "stateMutability": "nonpayable",
      "type": "function"
    },
    {
      "constant": false,
      "inputs": [],
      "name": "withdraw",
      "outputs": [],
      "payable": false,
      "stateMutability": "nonpayable",
      "type": "function"
    },
    {
      "constant": true,
      "inputs": [],
      "name": "winner",
      "outputs": [
        {
          "name": "",
          "type": "address"
        }
      ],
      "payable": false,
      "stateMutability": "view",
      "type": "function"
    },
    {
      "constant": true,
      "inputs": [],
      "name": "hasTheGameDrawn",
      "outputs": [
        {
          "name": "",
          "type": "bool"
        }
      ],
      "payable": false,
      "stateMutability": "view",
      "type": "function"
    },
    {
      "constant": true,
      "inputs": [],
      "name": "getBoard",
      "outputs": [
        {
          "name": "",
          "type": "address[3][3]"
        }
      ],
      "payable": false,
      "stateMutability": "view",
      "type": "function"
    }
  ],
  "bytecode": "0x608060405260036000806101000a81548160ff021916908360ff1602179055506001341015610079576040517f08c379a00000000000000000000000000000000000000000000000000000000081526004018080602001828103825260378152602001806116e76037913960400191505060405180910390fd5b600073ffffffffffffffffffffffffffffffffffffffff163373ffffffffffffffffffffffffffffffffffffffff1614156100ff576040517f08c379a00000000000000000000000000000000000000000000000000000000081526004018080602001828103825260318152602001806116b66031913960400191505060405180910390fd5b33600a60006101000a81548173ffffffffffffffffffffffffffffffffffffffff021916908373ffffffffffffffffffffffffffffffffffffffff16021790555034600e60003373ffffffffffffffffffffffffffffffffffffffff1673ffffffffffffffffffffffffffffffffffffffff16815260200190815260200160002081905550611523806101936000396000f3fe6080604052600436106100dc5760003560e01c8063c45470101161007f578063d1590ab011610059578063d1590ab01461037c578063d4f77b1c146103d3578063dfbf53ae146103dd578063f12ab87914610434576100dc565b8063c45470101461029d578063c51d69f4146102f4578063c94f598b14610325576100dc565b80633c2bcadc116100bb5780633c2bcadc146101c75780633ccfd60b146101f65780634e33f83b1461020d57806396bf15bf14610272576100dc565b8062be8275146100e15780631e6d2a161461010c5780633264a34b14610151575b600080fd5b3480156100ed57600080fd5b506100f6610463565b6040518082815260200191505060405180910390f35b34801561011857600080fd5b5061014f6004803603604081101561012f57600080fd5b810190808035906020019092919080359060200190929190505050610469565b005b34801561015d57600080fd5b50610166610add565b604051808260036000925b818410156101b75782846020020151600360200280838360005b838110156101a657808201518184015260208101905061018b565b505050509050019260010192610171565b9250505091505060405180910390f35b3480156101d357600080fd5b506101dc610b96565b604051808215151515815260200191505060405180910390f35b34801561020257600080fd5b5061020b610ba9565b005b34801561021957600080fd5b5061025c6004803603602081101561023057600080fd5b81019080803573ffffffffffffffffffffffffffffffffffffffff169060200190929190505050610c31565b6040518082815260200191505060405180910390f35b34801561027e57600080fd5b50610287610c49565b6040518082815260200191505060405180910390f35b3480156102a957600080fd5b506102b2610c55565b604051808273ffffffffffffffffffffffffffffffffffffffff1673ffffffffffffffffffffffffffffffffffffffff16815260200191505060405180910390f35b34801561030057600080fd5b50610309610c7b565b604051808260ff1660ff16815260200191505060405180910390f35b34801561033157600080fd5b5061033a610c8d565b604051808273ffffffffffffffffffffffffffffffffffffffff1673ffffffffffffffffffffffffffffffffffffffff16815260200191505060405180910390f35b34801561038857600080fd5b50610391610cb3565b604051808273ffffffffffffffffffffffffffffffffffffffff1673ffffffffffffffffffffffffffffffffffffffff16815260200191505060405180910390f35b6103db610cd9565b005b3480156103e957600080fd5b506103f2610ee7565b604051808273ffffffffffffffffffffffffffffffffffffffff1673ffffffffffffffffffffffffffffffffffffffff16815260200191505060405180910390f35b34801561044057600080fd5b50610449610f11565b604051808215151515815260200191505060405180910390f35b600d5481565b600a60009054906101000a900473ffffffffffffffffffffffffffffffffffffffff1673ffffffffffffffffffffffffffffffffffffffff163373ffffffffffffffffffffffffffffffffffffffff1614806105125750600b60009054906101000a900473ffffffffffffffffffffffffffffffffffffffff1673ffffffffffffffffffffffffffffffffffffffff163373ffffffffffffffffffffffffffffffffffffffff16145b610567576040517f08c379a00000000000000000000000000000000000000000000000000000000081526004018080602001828103825260388152602001806114206038913960400191505060405180910390fd5b6000809050600073ffffffffffffffffffffffffffffffffffffffff166001846003811061059157fe5b6003020183600381106105a057fe5b0160009054906101000a900473ffffffffffffffffffffffffffffffffffffffff1673ffffffffffffffffffffffffffffffffffffffff161461062e576040517f08c379a000000000000000000000000000000000000000000000000000000000815260040180806020018281038252603e8152602001806114ba603e913960400191505060405180910390fd5b336001846003811061063c57fe5b60030201836003811061064b57fe5b0160006101000a81548173ffffffffffffffffffffffffffffffffffffffff021916908373ffffffffffffffffffffffffffffffffffffffff1602179055506001600d600082825401925050819055506000809054906101000a900460ff1660ff16600d54106106c1576106be33610f28565b90505b8015610a875733600c60006101000a81548173ffffffffffffffffffffffffffffffffffffffff021916908373ffffffffffffffffffffffffffffffffffffffff160217905550600a60009054906101000a900473ffffffffffffffffffffffffffffffffffffffff1673ffffffffffffffffffffffffffffffffffffffff163373ffffffffffffffffffffffffffffffffffffffff1614156108f457600e6000600b60009054906101000a900473ffffffffffffffffffffffffffffffffffffffff1673ffffffffffffffffffffffffffffffffffffffff1673ffffffffffffffffffffffffffffffffffffffff16815260200190815260200160002054600e6000600a60009054906101000a900473ffffffffffffffffffffffffffffffffffffffff1673ffffffffffffffffffffffffffffffffffffffff1673ffffffffffffffffffffffffffffffffffffffff1681526020019081526020016000205401600e6000600a60009054906101000a900473ffffffffffffffffffffffffffffffffffffffff1673ffffffffffffffffffffffffffffffffffffffff1673ffffffffffffffffffffffffffffffffffffffff168152602001908152602001600020819055506000600e6000600b60009054906101000a900473ffffffffffffffffffffffffffffffffffffffff1673ffffffffffffffffffffffffffffffffffffffff1673ffffffffffffffffffffffffffffffffffffffff16815260200190815260200160002081905550610a86565b6000600e6000600a60009054906101000a900473ffffffffffffffffffffffffffffffffffffffff1673ffffffffffffffffffffffffffffffffffffffff1673ffffffffffffffffffffffffffffffffffffffff16815260200190815260200160002081905550600e6000600b60009054906101000a900473ffffffffffffffffffffffffffffffffffffffff1673ffffffffffffffffffffffffffffffffffffffff1673ffffffffffffffffffffffffffffffffffffffff16815260200190815260200160002054600e6000600a60009054906101000a900473ffffffffffffffffffffffffffffffffffffffff1673ffffffffffffffffffffffffffffffffffffffff1673ffffffffffffffffffffffffffffffffffffffff1681526020019081526020016000205401600e6000600b60009054906101000a900473ffffffffffffffffffffffffffffffffffffffff1673ffffffffffffffffffffffffffffffffffffffff1673ffffffffffffffffffffffffffffffffffffffff168152602001908152602001600020819055505b5b6000809054906101000a900460ff166000809054906101000a900460ff160260ff16600d54148015610ab7575080155b15610ad8576001600c60146101000a81548160ff0219169083151502179055505b505050565b610ae5611398565b6001600380602002604051908101604052809291906000905b82821015610b8d57838260030201600380602002604051908101604052809291908260038015610b79576020028201915b8160009054906101000a900473ffffffffffffffffffffffffffffffffffffffff1673ffffffffffffffffffffffffffffffffffffffff1681526020019060010190808311610b2f575b505050505081526020019060010190610afe565b50505050905090565b600c60149054906101000a900460ff1681565b3373ffffffffffffffffffffffffffffffffffffffff166108fc600e60003373ffffffffffffffffffffffffffffffffffffffff1673ffffffffffffffffffffffffffffffffffffffff168152602001908152602001600020549081150290604051600060405180830381858888f19350505050158015610c2e573d6000803e3d6000fd5b50565b600e6020528060005260406000206000915090505481565b671bc16d674ec8000081565b600a60009054906101000a900473ffffffffffffffffffffffffffffffffffffffff1681565b6000809054906101000a900460ff1681565b600c60009054906101000a900473ffffffffffffffffffffffffffffffffffffffff1681565b600b60009054906101000a900473ffffffffffffffffffffffffffffffffffffffff1681565b6001341015610d33576040517f08c379a00000000000000000000000000000000000000000000000000000000081526004018080602001828103825260348152602001806114866034913960400191505060405180910390fd5b600073ffffffffffffffffffffffffffffffffffffffff163373ffffffffffffffffffffffffffffffffffffffff161415610db9576040517f08c379a000000000000000000000000000000000000000000000000000000000815260040180806020018281038252602e815260200180611458602e913960400191505060405180910390fd5b600a60009054906101000a900473ffffffffffffffffffffffffffffffffffffffff1673ffffffffffffffffffffffffffffffffffffffff163373ffffffffffffffffffffffffffffffffffffffff161415610e60576040517f08c379a00000000000000000000000000000000000000000000000000000000081526004018080602001828103825260378152602001806113e96037913960400191505060405180910390fd5b33600b60006101000a81548173ffffffffffffffffffffffffffffffffffffffff021916908373ffffffffffffffffffffffffffffffffffffffff16021790555034600e60003373ffffffffffffffffffffffffffffffffffffffff1673ffffffffffffffffffffffffffffffffffffffff16815260200190815260200160002081905550565b6000600c60009054906101000a900473ffffffffffffffffffffffffffffffffffffffff16905090565b6000600c60149054906101000a900460ff16905090565b6000610f3382610f90565b15610f415760019050610f8b565b610f4a826110a6565b15610f585760019050610f8b565b610f61826111bc565b15610f6f5760019050610f8b565b610f788261128b565b15610f865760019050610f8b565b600090505b919050565b6000806000905060008090505b6000809054906101000a900460ff1660ff168160ff16101561109a5760008090505b6000809054906101000a900460ff1660ff168160ff16101561106f578473ffffffffffffffffffffffffffffffffffffffff1660018360ff166003811061100257fe5b600302018260ff166003811061101457fe5b0160009054906101000a900473ffffffffffffffffffffffffffffffffffffffff1673ffffffffffffffffffffffffffffffffffffffff16141561105d57600183019250611062565b61106f565b8080600101915050610fbf565b5061107982611367565b15611089576001925050506110a1565b600091508080600101915050610f9d565b5060009150505b919050565b6000806000905060008090505b6000809054906101000a900460ff1660ff168160ff1610156111b05760008090505b6000809054906101000a900460ff1660ff168160ff161015611185578473ffffffffffffffffffffffffffffffffffffffff1660018260ff166003811061111857fe5b600302018360ff166003811061112a57fe5b0160009054906101000a900473ffffffffffffffffffffffffffffffffffffffff1673ffffffffffffffffffffffffffffffffffffffff16141561117357600183019250611178565b611185565b80806001019150506110d5565b5061118f82611367565b1561119f576001925050506111b7565b6000915080806001019150506110b3565b5060009150505b919050565b6000806000905060008090505b6000809054906101000a900460ff1660ff168160ff161015611279578373ffffffffffffffffffffffffffffffffffffffff1660018260ff166003811061120c57fe5b600302018260ff166003811061121e57fe5b0160009054906101000a900473ffffffffffffffffffffffffffffffffffffffff1673ffffffffffffffffffffffffffffffffffffffff1614156112675760018201915061126c565b611279565b80806001019150506111c9565b5061128381611367565b915050919050565b600080600090506000809050600060016000809054906101000a900460ff160390505b60008160ff1610611354578473ffffffffffffffffffffffffffffffffffffffff1660018260ff16600381106112e057fe5b600302018360ff16600381106112f257fe5b0160009054906101000a900473ffffffffffffffffffffffffffffffffffffffff1673ffffffffffffffffffffffffffffffffffffffff16141561134157600182019150600183019250611346565b611354565b8080600190039150506112ae565b5061135e82611367565b92505050919050565b60008060009054906101000a900460ff1660ff168260ff16141561138e5760019050611393565b600090505b919050565b6040518061012001604052806003905b6113b06113c6565b8152602001906001900390816113a85790505090565b604051806060016040528060039060208202803883398082019150509050509056fe696e20546963546163546f653a6a6f696e47616d6528292e2053616d6520706c617965722063616e6e6f74206a6f696e2074776963652e696e20546963546163546f653a6f6e6c79506c617965727328292e204e6f6e2d706c617965722063616e6e6f74207365742073746f6e652e696e20546963546163546f653a6a6f696e47616d6528292e2043616c6c657220697320616464726573732830292e696e20546963546163546f653a6a6f696e47616d6528292e2056616c7565206973206c657373207468616e20312065746865722e696e2054696354616374546f653a73657453746f6e6528292e2043616e6e6f742073657420612073746f6e65206174206f636375706965642073706f742ea165627a7a723058203d865fcd3c04ccc5c3b77a5ea71e469bba1c5e70084563c8fd204514dcbe48ed0029696e20546963546163546f653a636f6e7374727563746f7228292e2043616c6c657220697320616464726573732830292e696e20546963546163546f653a636f6e7374727563746f7228292e2056616c7565206973206c657373207468616e20312065746865722e",
  "source": "pragma solidity  >=0.4.21 <0.7.0;\n\n\n/// @title TicTacToe smart contract\n/// @author Balaji Shetty Pachai\n/// @notice A game developed using solidity where two players can play for a game reward\ncontract TicTacToe {\n    uint256 public constant gamePrice = 2 ether;\n\n    uint8 public boardSize = 3;\n    address[3][3] board;\n\n    address public playerOneAddr;\n    address public playerTwoAddr;\n\n    address public gameWinner;\n\n    bool public isDrawn;\n\n    uint256 public moves;\n\n    mapping (address=>uint256) public playerBalance;\n\n    modifier onlyPlayers() {\n        require(\n            msg.sender == playerOneAddr || msg.sender == playerTwoAddr,\n            \"in TicTacToe:onlyPlayers(). Non-player cannot set stone.\"\n        );\n        _;\n    }\n\n    /// @notice Constructor function\n    constructor () public payable {\n        require(msg.value >= 1, \"in TicTacToe:constructor(). Value is less than 1 ether.\");\n        require(msg.sender != address(0), \"in TicTacToe:constructor(). Caller is address(0).\");\n        playerOneAddr = msg.sender;\n        playerBalance[msg.sender] = msg.value;\n    }\n\n    \n\n\n    \n\n    /// @notice Function that allows other player to join the game\n    /// such that any other player other than playerOne can join the game \n    /// by paying 1 ether\n    function joinGame() public payable {\n        require(msg.value >= 1, \"in TicTacToe:joinGame(). Value is less than 1 ether.\");\n        require(msg.sender != address(0), \"in TicTacToe:joinGame(). Caller is address(0).\");\n        require(msg.sender != playerOneAddr, \"in TicTacToe:joinGame(). Same player cannot join twice.\");\n        playerTwoAddr = msg.sender;\n        playerBalance[msg.sender] = msg.value;\n    }\n\n\n    /// @notice Function that marks the array indices with that of the player address\n    /// This will take rowIndex and columnIndex as parameters\n    /// and set either playerOne or playerTwo address in the board[][] address array at the rowIndex, clumnIndex\n    /// Here multiple things should be taken care of\n    /// As soon as a stone has been set, look out whether there is a winner or there is a draw\n    function setStone(uint256 x, uint256 y) public onlyPlayers {\n        bool isWinner = false;\n        require(\n            board[x][y] == address(0),\n            \"in TicTactToe:setStone(). Cannot set a stone at occupied spot.\"\n        );\n        board[x][y] = msg.sender;\n        moves += 1;\n        if (moves >= boardSize) {\n            isWinner = checkForWinner(msg.sender);\n        }\n\n        if (isWinner) {\n            gameWinner = msg.sender;\n            // Update player balance\n            if (msg.sender == playerOneAddr) {\n                playerBalance[playerOneAddr] = playerBalance[playerOneAddr] + playerBalance[playerTwoAddr];\n                playerBalance[playerTwoAddr] = 0;\n            } else {\n                playerBalance[playerOneAddr] = 0;\n                playerBalance[playerTwoAddr] = playerBalance[playerOneAddr] + playerBalance[playerTwoAddr];\n            }\n        }\n\n        // Checks for draw\n        if (moves == (boardSize * boardSize) && !isWinner) {\n            isDrawn = true;\n        }\n    }\n\n    /// @notice Function that allows the players to withdraw their ethers\n    function withdraw() public {\n        msg.sender.transfer(playerBalance[msg.sender]);\n    }\n\n    ///@notice Function that returns the winner address\n    function winner() public view returns (address) {\n        return gameWinner;\n    }\n\n    ///@notice Functin that returns whether the game was a draw\n    function hasTheGameDrawn() public view returns (bool) {\n        return isDrawn;\n    }\n\n    /// @notice Function that gets the board details\n    function getBoard() public view returns (address[3][3] memory) {\n        return board;\n    }\n\n    /// @notice Function that checks for winner\n    /// @param player Address that is being checked if it is the winner\n    /// @return \n    function checkForWinner(address player) internal view returns (bool){\n        if (checkRowForWinner(player)) {\n            return true;\n        } else if (checkColumnForWinner(player)) {\n            return true;\n        } else if (checkDiagonallyForWinner(player)) {\n            return true;\n        } else if (checkAntiDiagonallyForWinner(player)) {\n            return true;\n        } else {\n            return false;\n        }\n    }\n\n    /// @notice Function that checks whether the winner exists across a row\n    /// @param player Address that is being checked if it is the winner\n    function checkRowForWinner(address player) internal view returns (bool) {\n        uint8 count = 0;\n        for (uint8 i = 0; i < boardSize; i++) {\n            for (uint8 j = 0; j < boardSize; j++) {\n                if (board[i][j] == player) {\n                    count += 1;\n                } else {\n                    break;\n                }\n            }\n            if (isWinnerFound(count)) {\n                return true;\n            } else {\n                count = 0;\n            }\n        }\n        return false;\n    }\n\n    /// @notice Function that checks whether the winner exists across a column\n    /// @param player Address that is being checked if it is the winner\n    function checkColumnForWinner(address player) internal view returns (bool) {\n        uint8 count = 0;\n        for (uint8 i = 0; i < boardSize; i++) {\n            for (uint8 j = 0; j < boardSize; j++) {\n                if (board[j][i] == player) {\n                    count += 1;\n                } else {\n                    break;\n                }\n            }\n            if (isWinnerFound(count)) {\n                return true;\n            } else {\n                count = 0;\n            }\n        }\n        return false;\n    }\n\n    /// @notice Function that checks whether the winner exists diagonally\n    /// @param player Address that is being checked if it is the winner\n    function checkDiagonallyForWinner(address player) internal view returns (bool) {\n        uint8 count = 0;\n        for (uint8 i = 0; i < boardSize; i++) {\n            if (board[i][i] == player) {\n                count += 1;\n            } else {\n                break;\n            }\n        }\n        return isWinnerFound(count);\n    }\n\n    /// @notice Function that checks whether the winner exists anti-diagonally\n    /// @param player Address that is being checked if it is the winner\n    function checkAntiDiagonallyForWinner(address player) internal view returns (bool) {\n        uint8 count = 0;\n        uint8 rowCount = 0;\n        for (uint8 i = boardSize - 1; i >= 0; i--) {\n            if (board[i][rowCount] == player) {\n                rowCount += 1;\n                count += 1;\n            } else {\n                break;\n            }\n        }\n        return isWinnerFound(count);\n    }\n\n    /// @notice Compare count with boardSize,if both are equal return true else false\n    function isWinnerFound(uint8 count) internal view returns (bool) {\n        if (count == boardSize) {\n            return true;\n        } else {\n            return false;\n        }\n    }\n    \n}",
  "sourcePath": "/home/balajipachai/Desktop/learning/smart-contract-for-fun/blockchain-games/contracts/TicTacToe.sol",
  "compiler": {
    "name": "solc",
    "version": "0.5.8+commit.23d335f2.Emscripten.clang"
  },
  "schemaVersion": "3.0.15",
  "updatedAt": "2019-09-28T04:49:21.166Z",
  "devdoc": {
    "author": "Balaji Shetty Pachai",
    "methods": {},
    "title": "TicTacToe smart contract"
  },
  "userdoc": {
    "methods": {
      "constructor": "Constructor function",
      "getBoard()": {
        "notice": "Function that gets the board details"
      },
      "hasTheGameDrawn()": {
        "notice": "Functin that returns whether the game was a draw"
      },
      "joinGame()": {
        "notice": "Function that allows other player to join the game such that any other player other than playerOne can join the game  by paying 1 ether"
      },
      "setStone(uint256,uint256)": {
        "notice": "Function that marks the array indices with that of the player address This will take rowIndex and columnIndex as parameters and set either playerOne or playerTwo address in the board[][] address array at the rowIndex, clumnIndex Here multiple things should be taken care of As soon as a stone has been set, look out whether there is a winner or there is a draw"
      },
      "winner()": {
        "notice": "Function that returns the winner address"
      },
      "withdraw()": {
        "notice": "Function that allows the players to withdraw their ethers"
      }
    },
    "notice": "A game developed using solidity where two players can play for a game reward"
  }
}