{
  "contractName": "Betting",
  "abi": [
    {
      "constant": true,
      "inputs": [],
      "name": "FRACTIONAL_RATE_SCALING_FACTOR",
      "outputs": [
        {
          "name": "",
          "type": "uint256"
        }
      ],
      "payable": false,
      "stateMutability": "view",
      "type": "function"
    },
    {
      "constant": true,
      "inputs": [],
      "name": "profitPercent",
      "outputs": [
        {
          "name": "",
          "type": "uint256"
        }
      ],
      "payable": false,
      "stateMutability": "view",
      "type": "function"
    },
    {
      "constant": true,
      "inputs": [
        {
          "name": "",
          "type": "address"
        }
      ],
      "name": "bettedFor",
      "outputs": [
        {
          "name": "",
          "type": "uint256"
        }
      ],
      "payable": false,
      "stateMutability": "view",
      "type": "function"
    },
    {
      "constant": false,
      "inputs": [],
      "name": "renounceOwnership",
      "outputs": [],
      "payable": false,
      "stateMutability": "nonpayable",
      "type": "function"
    },
    {
      "constant": true,
      "inputs": [],
      "name": "owner",
      "outputs": [
        {
          "name": "",
          "type": "address"
        }
      ],
      "payable": false,
      "stateMutability": "view",
      "type": "function"
    },
    {
      "constant": true,
      "inputs": [],
      "name": "isOwner",
      "outputs": [
        {
          "name": "",
          "type": "bool"
        }
      ],
      "payable": false,
      "stateMutability": "view",
      "type": "function"
    },
    {
      "constant": true,
      "inputs": [
        {
          "name": "",
          "type": "address"
        },
        {
          "name": "",
          "type": "uint256"
        }
      ],
      "name": "betAmount",
      "outputs": [
        {
          "name": "",
          "type": "uint256"
        }
      ],
      "payable": false,
      "stateMutability": "view",
      "type": "function"
    },
    {
      "constant": true,
      "inputs": [],
      "name": "winner",
      "outputs": [
        {
          "name": "",
          "type": "uint256"
        }
      ],
      "payable": false,
      "stateMutability": "view",
      "type": "function"
    },
    {
      "constant": true,
      "inputs": [],
      "name": "DIVISIONAL_FACTOR",
      "outputs": [
        {
          "name": "",
          "type": "uint256"
        }
      ],
      "payable": false,
      "stateMutability": "view",
      "type": "function"
    },
    {
      "constant": true,
      "inputs": [],
      "name": "commisionPercent",
      "outputs": [
        {
          "name": "",
          "type": "uint256"
        }
      ],
      "payable": false,
      "stateMutability": "view",
      "type": "function"
    },
    {
      "constant": false,
      "inputs": [
        {
          "name": "newOwner",
          "type": "address"
        }
      ],
      "name": "transferOwnership",
      "outputs": [],
      "payable": false,
      "stateMutability": "nonpayable",
      "type": "function"
    },
    {
      "anonymous": false,
      "inputs": [
        {
          "indexed": true,
          "name": "previousOwner",
          "type": "address"
        },
        {
          "indexed": true,
          "name": "newOwner",
          "type": "address"
        }
      ],
      "name": "OwnershipTransferred",
      "type": "event"
    },
    {
      "constant": false,
      "inputs": [
        {
          "name": "_id",
          "type": "uint256"
        }
      ],
      "name": "bet",
      "outputs": [],
      "payable": true,
      "stateMutability": "payable",
      "type": "function"
    },
    {
      "constant": false,
      "inputs": [
        {
          "name": "_winnerId",
          "type": "uint256"
        }
      ],
      "name": "finishRace",
      "outputs": [],
      "payable": false,
      "stateMutability": "nonpayable",
      "type": "function"
    },
    {
      "constant": false,
      "inputs": [],
      "name": "withdraw",
      "outputs": [],
      "payable": false,
      "stateMutability": "nonpayable",
      "type": "function"
    }
  ],
  "bytecode": "0x6080604052614e2060015562013880600255336000806101000a81548173ffffffffffffffffffffffffffffffffffffffff021916908373ffffffffffffffffffffffffffffffffffffffff1602179055506000809054906101000a900473ffffffffffffffffffffffffffffffffffffffff1673ffffffffffffffffffffffffffffffffffffffff16600073ffffffffffffffffffffffffffffffffffffffff167f8be0079c531659141344cd1fd0a4f28419497f9722a3daafe3b4186f6b6457e060405160405180910390a3610b76806100dc6000396000f3fe6080604052600436106100fa576000357c0100000000000000000000000000000000000000000000000000000000900480638da5cb5b1161009c578063dfbf53ae11610076578063dfbf53ae14610346578063e165839314610371578063e504f4ea1461039c578063f2fde38b146103c7576100fa565b80638da5cb5b146102515780638f32d59b146102a85780639243f8b4146102d7576100fa565b80633ccfd60b116100d85780633ccfd60b146101905780635757778d146101a7578063715018a61461020c5780637365870b14610223576100fa565b806309b8d366146100ff5780631b0156f01461012a5780631d08517e14610155575b600080fd5b34801561010b57600080fd5b50610114610418565b6040518082815260200191505060405180910390f35b34801561013657600080fd5b5061013f61041e565b6040518082815260200191505060405180910390f35b34801561016157600080fd5b5061018e6004803603602081101561017857600080fd5b8101908080359060200190929190505050610424565b005b34801561019c57600080fd5b506101a56104aa565b005b3480156101b357600080fd5b506101f6600480360360208110156101ca57600080fd5b81019080803573ffffffffffffffffffffffffffffffffffffffff169060200190929190505050610575565b6040518082815260200191505060405180910390f35b34801561021857600080fd5b5061022161058d565b005b61024f6004803603602081101561023957600080fd5b81019080803590602001909291905050506106c8565b005b34801561025d57600080fd5b50610266610847565b604051808273ffffffffffffffffffffffffffffffffffffffff1673ffffffffffffffffffffffffffffffffffffffff16815260200191505060405180910390f35b3480156102b457600080fd5b506102bd610870565b604051808215151515815260200191505060405180910390f35b3480156102e357600080fd5b50610330600480360360408110156102fa57600080fd5b81019080803573ffffffffffffffffffffffffffffffffffffffff169060200190929190803590602001909291905050506108c7565b6040518082815260200191505060405180910390f35b34801561035257600080fd5b5061035b6108ec565b6040518082815260200191505060405180910390f35b34801561037d57600080fd5b506103866108f2565b6040518082815260200191505060405180910390f35b3480156103a857600080fd5b506103b16108f9565b6040518082815260200191505060405180910390f35b3480156103d357600080fd5b50610416600480360360208110156103ea57600080fd5b81019080803573ffffffffffffffffffffffffffffffffffffffff1690602001909291905050506108ff565b005b61271081565b60025481565b61042c610870565b15156104a0576040517f08c379a00000000000000000000000000000000000000000000000000000000081526004018080602001828103825260208152602001807f4f776e61626c653a2063616c6c6572206973206e6f7420746865206f776e657281525060200191505060405180910390fd5b8060038190555050565b600354600560003373ffffffffffffffffffffffffffffffffffffffff1673ffffffffffffffffffffffffffffffffffffffff16815260200190815260200160002054141561056e576000620186a03073ffffffffffffffffffffffffffffffffffffffff16316002540281151561051e57fe5b0490503373ffffffffffffffffffffffffffffffffffffffff166108fc829081150290604051600060405180830381858888f19350505050158015610567573d6000803e3d6000fd5b5050610573565b600080fd5b565b60056020528060005260406000206000915090505481565b610595610870565b1515610609576040517f08c379a00000000000000000000000000000000000000000000000000000000081526004018080602001828103825260208152602001807f4f776e61626c653a2063616c6c6572206973206e6f7420746865206f776e657281525060200191505060405180910390fd5b600073ffffffffffffffffffffffffffffffffffffffff166000809054906101000a900473ffffffffffffffffffffffffffffffffffffffff1673ffffffffffffffffffffffffffffffffffffffff167f8be0079c531659141344cd1fd0a4f28419497f9722a3daafe3b4186f6b6457e060405160405180910390a360008060006101000a81548173ffffffffffffffffffffffffffffffffffffffff021916908373ffffffffffffffffffffffffffffffffffffffff160217905550565b600073ffffffffffffffffffffffffffffffffffffffff163373ffffffffffffffffffffffffffffffffffffffff1614151515610750576040517f08c379a0000000000000000000000000000000000000000000000000000000008152600401808060200182810382526030815260200180610af46030913960400191505060405180910390fd5b6000341115156107ab576040517f08c379a0000000000000000000000000000000000000000000000000000000008152600401808060200182810382526027815260200180610b246027913960400191505060405180910390fd5b34600460003373ffffffffffffffffffffffffffffffffffffffff1673ffffffffffffffffffffffffffffffffffffffff16815260200190815260200160002060008381526020019081526020016000208190555080600560003373ffffffffffffffffffffffffffffffffffffffff1673ffffffffffffffffffffffffffffffffffffffff1681526020019081526020016000208190555050565b60008060009054906101000a900473ffffffffffffffffffffffffffffffffffffffff16905090565b60008060009054906101000a900473ffffffffffffffffffffffffffffffffffffffff1673ffffffffffffffffffffffffffffffffffffffff163373ffffffffffffffffffffffffffffffffffffffff1614905090565b6004602052816000526040600020602052806000526040600020600091509150505481565b60035481565b620186a081565b60015481565b610907610870565b151561097b576040517f08c379a00000000000000000000000000000000000000000000000000000000081526004018080602001828103825260208152602001807f4f776e61626c653a2063616c6c6572206973206e6f7420746865206f776e657281525060200191505060405180910390fd5b61098481610987565b50565b600073ffffffffffffffffffffffffffffffffffffffff168173ffffffffffffffffffffffffffffffffffffffff1614151515610a0f576040517f08c379a0000000000000000000000000000000000000000000000000000000008152600401808060200182810382526026815260200180610ace6026913960400191505060405180910390fd5b8073ffffffffffffffffffffffffffffffffffffffff166000809054906101000a900473ffffffffffffffffffffffffffffffffffffffff1673ffffffffffffffffffffffffffffffffffffffff167f8be0079c531659141344cd1fd0a4f28419497f9722a3daafe3b4186f6b6457e060405160405180910390a3806000806101000a81548173ffffffffffffffffffffffffffffffffffffffff021916908373ffffffffffffffffffffffffffffffffffffffff1602179055505056fe4f776e61626c653a206e6577206f776e657220697320746865207a65726f2061646472657373696e2042657474696e673a62657428292e2043616c6c65722063616e6e6f742062652061646472657373207a65726f2e696e2042657474696e673a62657428292e2056616c75652063616e6e6f74206265207a65726f2ea165627a7a72305820bf64a56cb7cb446bf962455ade56e6a5ee170383ef522a681150633286bee9390029",
  "source": "pragma solidity ^0.5.0;\n\nimport \"../openzeppelin-solidity/contracts/ownership/Ownable.sol\";\nimport \"../openzeppelin-solidity/contracts/math/SafeMath.sol\";\n\ncontract Betting is Ownable {\n\n    using SafeMath for uint;\n\n    uint public constant FRACTIONAL_RATE_SCALING_FACTOR = 10 ** 4;\n    uint public constant DIVISIONAL_FACTOR = 10 ** 5;\n    uint public commisionPercent = 20000;\n    uint public profitPercent = 80000;\n    uint public winner;\n\n    mapping (address => mapping(uint => uint)) public betAmount;\n    mapping(address => uint) public bettedFor;\n\n    function bet(uint _id) public payable {\n        require(msg.sender != address(0), \"in Betting:bet(). Caller cannot be address zero.\");\n        require(msg.value > 0, \"in Betting:bet(). Value cannot be zero.\");\n        betAmount[msg.sender][_id] = msg.value;\n        bettedFor[msg.sender] = _id;\n    }\n\n    //TODO: @balaji make this Third Party Independent i.e. owner independent\n    function finishRace(uint _winnerId) public onlyOwner {\n        winner = _winnerId;\n    }\n\n    function withdraw() public {\n        if (bettedFor[msg.sender] == winner) {\n            uint amount = ((profitPercent * address(this).balance) / DIVISIONAL_FACTOR );\n            msg.sender.transfer(amount);\n        } else {\n            revert();\n        }\n    }\n}",
  "sourcePath": "/home/balajipachai/Desktop/learning/smart-contract-for-fun/truffle/oasis-gaming-hackathon/contracts/oasis-hackathon/Betting.sol",
  "compiler": {
    "name": "solc",
    "version": "0.5.2+commit.1df8f40c.Emscripten.clang"
  },
  "schemaVersion": "3.0.15",
  "updatedAt": "2019-10-05T17:52:42.453Z",
  "devdoc": {
    "methods": {
      "isOwner()": {
        "details": "Returns true if the caller is the current owner."
      },
      "owner()": {
        "details": "Returns the address of the current owner."
      },
      "renounceOwnership()": {
        "details": "Leaves the contract without owner. It will not be possible to call `onlyOwner` functions anymore. Can only be called by the current owner.     * > Note: Renouncing ownership will leave the contract without an owner, thereby removing any functionality that is only available to the owner."
      },
      "transferOwnership(address)": {
        "details": "Transfers ownership of the contract to a new account (`newOwner`). Can only be called by the current owner."
      }
    }
  },
  "userdoc": {
    "methods": {}
  }
}