{
  "contractName": "WithdrawalContract",
  "abi": [
    {
      "constant": true,
      "inputs": [],
      "name": "richest",
      "outputs": [
        {
          "name": "",
          "type": "address"
        }
      ],
      "payable": false,
      "stateMutability": "view",
      "type": "function"
    },
    {
      "constant": true,
      "inputs": [],
      "name": "mostSent",
      "outputs": [
        {
          "name": "",
          "type": "uint256"
        }
      ],
      "payable": false,
      "stateMutability": "view",
      "type": "function"
    },
    {
      "constant": true,
      "inputs": [
        {
          "name": "",
          "type": "address"
        }
      ],
      "name": "pendingWithdrawals",
      "outputs": [
        {
          "name": "",
          "type": "uint256"
        }
      ],
      "payable": false,
      "stateMutability": "view",
      "type": "function"
    },
    {
      "inputs": [],
      "payable": true,
      "stateMutability": "payable",
      "type": "constructor"
    },
    {
      "constant": false,
      "inputs": [],
      "name": "becomeRichest",
      "outputs": [
        {
          "name": "",
          "type": "bool"
        }
      ],
      "payable": true,
      "stateMutability": "payable",
      "type": "function"
    },
    {
      "constant": false,
      "inputs": [],
      "name": "withdraw",
      "outputs": [],
      "payable": false,
      "stateMutability": "nonpayable",
      "type": "function"
    }
  ],
  "bytecode": "0x6080604052336000806101000a81548173ffffffffffffffffffffffffffffffffffffffff021916908373ffffffffffffffffffffffffffffffffffffffff16021790555034600181905550600154600260008060009054906101000a900473ffffffffffffffffffffffffffffffffffffffff1673ffffffffffffffffffffffffffffffffffffffff1673ffffffffffffffffffffffffffffffffffffffff1681526020019081526020016000208190555061052d806100c16000396000f3fe608060405260043610610067576000357c01000000000000000000000000000000000000000000000000000000009004806302e26c381461006c5780633ccfd60b146100c35780636886bf1c146100da57806369934ee714610105578063f3f4370314610127575b600080fd5b34801561007857600080fd5b5061008161018c565b604051808273ffffffffffffffffffffffffffffffffffffffff1673ffffffffffffffffffffffffffffffffffffffff16815260200191505060405180910390f35b3480156100cf57600080fd5b506100d86101b1565b005b3480156100e657600080fd5b506100ef61030c565b6040518082815260200191505060405180910390f35b61010d610312565b604051808215151515815260200191505060405180910390f35b34801561013357600080fd5b506101766004803603602081101561014a57600080fd5b81019080803573ffffffffffffffffffffffffffffffffffffffff169060200190929190505050610464565b6040518082815260200191505060405180910390f35b6000809054906101000a900473ffffffffffffffffffffffffffffffffffffffff1681565b600073ffffffffffffffffffffffffffffffffffffffff163373ffffffffffffffffffffffffffffffffffffffff1614151515610239576040517f08c379a000000000000000000000000000000000000000000000000000000000815260040180806020018281038252604081526020018061047d6040913960400191505060405180910390fd5b6000600260003373ffffffffffffffffffffffffffffffffffffffff1673ffffffffffffffffffffffffffffffffffffffff1681526020019081526020016000205490506000600260003373ffffffffffffffffffffffffffffffffffffffff1673ffffffffffffffffffffffffffffffffffffffff168152602001908152602001600020819055503373ffffffffffffffffffffffffffffffffffffffff166108fc829081150290604051600060405180830381858888f19350505050158015610308573d6000803e3d6000fd5b5050565b60015481565b60008073ffffffffffffffffffffffffffffffffffffffff163373ffffffffffffffffffffffffffffffffffffffff161415151561039b576040517f08c379a00000000000000000000000000000000000000000000000000000000081526004018080602001828103825260458152602001806104bd6045913960600191505060405180910390fd5b60015434111561045c57336000806101000a81548173ffffffffffffffffffffffffffffffffffffffff021916908373ffffffffffffffffffffffffffffffffffffffff16021790555034600181905550600154600260008060009054906101000a900473ffffffffffffffffffffffffffffffffffffffff1673ffffffffffffffffffffffffffffffffffffffff1673ffffffffffffffffffffffffffffffffffffffff1681526020019081526020016000208190555060019050610461565b600090505b90565b6002602052806000526040600020600091509050548156fe696e205769746864726177616c436f6e74726163743a776974686472617728292e2043616c6c65722063616e6e6f742062652061646472657373207a65726f2e696e205769746864726177616c436f6e74726163743a6265636f6d655269636865737428292e2043616c6c65722063616e6e6f742062652061646472657373207a65726f2ea165627a7a7230582059970d1dbc8f3187190e44a5f22c111c322aa0b151dc3c042894a18a7ec459ef0029",
  "source": "pragma solidity >=0.4.22 <0.7.0;\n\n/// @title A contract showing the withdrawal pattern\n/// @notice It depicts the recommended common pattern that should be followed in case of withdrawal\ncontract WithdrawalContract {\n    address public richest;\n    uint public mostSent;\n\n    mapping(address => uint256) public pendingWithdrawals;\n\n    constructor() public payable {\n        richest = msg.sender;\n        mostSent = msg.value;\n        pendingWithdrawals[richest] = mostSent;\n    }\n\n    /// @notice Function that changes the richest \n    function becomeRichest() public payable returns (bool) {\n        require(msg.sender != address(0), \"in WithdrawalContract:becomeRichest(). Caller cannot be address zero.\");\n        if (msg.value > mostSent) {\n            richest = msg.sender;\n            mostSent = msg.value;\n            pendingWithdrawals[richest] = mostSent;\n            return true;\n        } else {\n            return false;\n        }\n    }\n\n    /// @notice Function that withdraws ether from the contract of the concerned user\n    function withdraw() public {\n        require(msg.sender != address(0), \"in WithdrawalContract:withdraw(). Caller cannot be address zero.\");\n        uint256 amount = pendingWithdrawals[msg.sender];\n        pendingWithdrawals[msg.sender] = 0;\n        msg.sender.transfer(amount);\n    }\n}",
  "sourcePath": "/home/balajipachai/Desktop/learning/smart-contract-for-fun/truffle/solidity-readthe-docs/contracts/WithdrawalContract.sol",
  "compiler": {
    "name": "solc",
    "version": "0.5.2+commit.1df8f40c.Emscripten.clang"
  },
  "schemaVersion": "3.0.15",
  "updatedAt": "2019-10-02T07:18:29.439Z",
  "devdoc": {
    "methods": {},
    "title": "A contract showing the withdrawal pattern"
  },
  "userdoc": {
    "methods": {
      "becomeRichest()": {
        "notice": "Function that changes the richest "
      },
      "withdraw()": {
        "notice": "Function that withdraws ether from the contract of the concerned user"
      }
    },
    "notice": "It depicts the recommended common pattern that should be followed in case of withdrawal"
  }
}